{
    "contractName": "Lottery",
    "abi": [
        {
            "inputs": [
                {
                    "internalType": "address",
                    "name": "_priceFeedAddress",
                    "type": "address"
                },
                {
                    "internalType": "address",
                    "name": "vrfCoordinator",
                    "type": "address"
                },
                {
                    "internalType": "uint256",
                    "name": "subscriptionId",
                    "type": "uint256"
                }
            ],
            "stateMutability": "nonpayable",
            "type": "constructor"
        },
        {
            "inputs": [
                {
                    "internalType": "address",
                    "name": "have",
                    "type": "address"
                },
                {
                    "internalType": "address",
                    "name": "want",
                    "type": "address"
                }
            ],
            "name": "OnlyCoordinatorCanFulfill",
            "type": "error"
        },
        {
            "inputs": [
                {
                    "internalType": "address",
                    "name": "have",
                    "type": "address"
                },
                {
                    "internalType": "address",
                    "name": "owner",
                    "type": "address"
                },
                {
                    "internalType": "address",
                    "name": "coordinator",
                    "type": "address"
                }
            ],
            "name": "OnlyOwnerOrCoordinator",
            "type": "error"
        },
        {
            "inputs": [],
            "name": "ZeroAddress",
            "type": "error"
        },
        {
            "anonymous": false,
            "inputs": [
                {
                    "indexed": false,
                    "internalType": "address",
                    "name": "vrfCoordinator",
                    "type": "address"
                }
            ],
            "name": "CoordinatorSet",
            "type": "event"
        },
        {
            "anonymous": false,
            "inputs": [
                {
                    "indexed": true,
                    "internalType": "address",
                    "name": "from",
                    "type": "address"
                },
                {
                    "indexed": true,
                    "internalType": "address",
                    "name": "to",
                    "type": "address"
                }
            ],
            "name": "OwnershipTransferRequested",
            "type": "event"
        },
        {
            "anonymous": false,
            "inputs": [
                {
                    "indexed": true,
                    "internalType": "address",
                    "name": "from",
                    "type": "address"
                },
                {
                    "indexed": true,
                    "internalType": "address",
                    "name": "to",
                    "type": "address"
                }
            ],
            "name": "OwnershipTransferred",
            "type": "event"
        },
        {
            "anonymous": false,
            "inputs": [
                {
                    "indexed": true,
                    "internalType": "uint256",
                    "name": "requestId",
                    "type": "uint256"
                }
            ],
            "name": "RequestedRandomness",
            "type": "event"
        },
        {
            "inputs": [],
            "name": "acceptOwnership",
            "outputs": [],
            "stateMutability": "nonpayable",
            "type": "function"
        },
        {
            "inputs": [],
            "name": "endLottery",
            "outputs": [
                {
                    "internalType": "uint256",
                    "name": "requestId",
                    "type": "uint256"
                }
            ],
            "stateMutability": "nonpayable",
            "type": "function"
        },
        {
            "inputs": [],
            "name": "enter",
            "outputs": [],
            "stateMutability": "payable",
            "type": "function"
        },
        {
            "inputs": [],
            "name": "getEntryFee",
            "outputs": [
                {
                    "internalType": "uint256",
                    "name": "",
                    "type": "uint256"
                }
            ],
            "stateMutability": "view",
            "type": "function"
        },
        {
            "inputs": [],
            "name": "lottery_state",
            "outputs": [
                {
                    "internalType": "enum Lottery.LOTTERY_STATE",
                    "name": "",
                    "type": "uint8"
                }
            ],
            "stateMutability": "view",
            "type": "function"
        },
        {
            "inputs": [],
            "name": "owner",
            "outputs": [
                {
                    "internalType": "address",
                    "name": "",
                    "type": "address"
                }
            ],
            "stateMutability": "view",
            "type": "function"
        },
        {
            "inputs": [
                {
                    "internalType": "uint256",
                    "name": "",
                    "type": "uint256"
                }
            ],
            "name": "players",
            "outputs": [
                {
                    "internalType": "address payable",
                    "name": "",
                    "type": "address"
                }
            ],
            "stateMutability": "view",
            "type": "function"
        },
        {
            "inputs": [],
            "name": "randomness",
            "outputs": [
                {
                    "internalType": "uint256",
                    "name": "",
                    "type": "uint256"
                }
            ],
            "stateMutability": "view",
            "type": "function"
        },
        {
            "inputs": [
                {
                    "internalType": "uint256",
                    "name": "requestId",
                    "type": "uint256"
                },
                {
                    "internalType": "uint256[]",
                    "name": "randomWords",
                    "type": "uint256[]"
                }
            ],
            "name": "rawFulfillRandomWords",
            "outputs": [],
            "stateMutability": "nonpayable",
            "type": "function"
        },
        {
            "inputs": [],
            "name": "recentWinner",
            "outputs": [
                {
                    "internalType": "address payable",
                    "name": "",
                    "type": "address"
                }
            ],
            "stateMutability": "view",
            "type": "function"
        },
        {
            "inputs": [],
            "name": "s_vrfCoordinator",
            "outputs": [
                {
                    "internalType": "contract IVRFCoordinatorV2Plus",
                    "name": "",
                    "type": "address"
                }
            ],
            "stateMutability": "view",
            "type": "function"
        },
        {
            "inputs": [
                {
                    "internalType": "address",
                    "name": "_vrfCoordinator",
                    "type": "address"
                }
            ],
            "name": "setCoordinator",
            "outputs": [],
            "stateMutability": "nonpayable",
            "type": "function"
        },
        {
            "inputs": [],
            "name": "startLottery",
            "outputs": [],
            "stateMutability": "nonpayable",
            "type": "function"
        },
        {
            "inputs": [
                {
                    "internalType": "address",
                    "name": "to",
                    "type": "address"
                }
            ],
            "name": "transferOwnership",
            "outputs": [],
            "stateMutability": "nonpayable",
            "type": "function"
        },
        {
            "inputs": [],
            "name": "usdEntryFee",
            "outputs": [
                {
                    "internalType": "uint256",
                    "name": "",
                    "type": "uint256"
                }
            ],
            "stateMutability": "view",
            "type": "function"
        }
    ],
    "bytecode": "60806040527f787d74caea10b2b357790d5b5247c2f63d1d91572a9846f780606e4d953677ae600955600a80546001600160501b0319166601000300009c401790553480156200004e57600080fd5b506040516200119c3803806200119c833981016040819052620000719162000244565b813380600081620000c95760405162461bcd60e51b815260206004820152601860248201527f43616e6e6f7420736574206f776e657220746f207a65726f000000000000000060448201526064015b60405180910390fd5b600080546001600160a01b0319166001600160a01b0384811691909117909155811615620000fc57620000fc816200017b565b5050506001600160a01b038116620001275760405163d92e233d60e01b815260040160405180910390fd5b600280546001600160a01b0319166001600160a01b039283161790556802b5e3af16b188000060065560078054949091166001600160a81b031990941693909317600160a01b179092555060085562000284565b6001600160a01b038116331415620001d65760405162461bcd60e51b815260206004820152601760248201527f43616e6e6f74207472616e7366657220746f2073656c660000000000000000006044820152606401620000c0565b600180546001600160a01b0319166001600160a01b0383811691821790925560008054604051929316917fed8889f560326eb138920d842192f0eb3dd22b4f139c87a2c57538e05bae12789190a350565b80516001600160a01b03811681146200023f57600080fd5b919050565b60008060006060848603121562000259578283fd5b620002648462000227565b9250620002746020850162000227565b9150604084015190509250925092565b610f0880620002946000396000f3fe6080604052600436106100e85760003560e01c806388ab139a1161008a578063e586a4f011610059578063e586a4f014610251578063e97dcb6214610266578063f2fde38b1461026e578063f71d96cb1461028e57600080fd5b806388ab139a146101dd5780638da5cb5b146101f35780638ea98117146102115780639eccacf61461023157600080fd5b806336013189116100c6578063360131891461014c5780634f8c70cf1461016257806379ba50971461019a57806381447999146101af57600080fd5b80631593a8c7146100ed578063160344e2146101155780631fe543e31461012c575b600080fd5b3480156100f957600080fd5b506101026102ae565b6040519081526020015b60405180910390f35b34801561012157600080fd5b5061012a6103e8565b005b34801561013857600080fd5b5061012a610147366004610cd8565b61047f565b34801561015857600080fd5b5061010260055481565b34801561016e57600080fd5b50600454610182906001600160a01b031681565b6040516001600160a01b03909116815260200161010c565b3480156101a657600080fd5b5061012a6104cf565b3480156101bb57600080fd5b506007546101d090600160a01b900460ff1681565b60405161010c9190610da1565b3480156101e957600080fd5b5061010260065481565b3480156101ff57600080fd5b506000546001600160a01b0316610182565b34801561021d57600080fd5b5061012a61022c366004610c7a565b610579565b34801561023d57600080fd5b50600254610182906001600160a01b031681565b34801561025d57600080fd5b5061010261066b565b61012a61073a565b34801561027a57600080fd5b5061012a610289366004610c7a565b610847565b34801561029a57600080fd5b506101826102a9366004610ca8565b61085b565b60006102b8610885565b6007805460ff60a01b1916600160a11b1790556002546040805160c0810182526009548152600854602080830191909152600a5461ffff6401000000008204168385015263ffffffff808216606085015266010000000000009091041660808301528251908101909252600082526001600160a01b0390921691639b1c385e9160a0820190610346906108da565b8152506040518263ffffffff1660e01b81526004016103659190610dc9565b602060405180830381600087803b15801561037f57600080fd5b505af1158015610393573d6000803e3d6000fd5b505050506040513d601f19601f820116820180604052508101906103b79190610cc0565b60405190915081907f5d7d0431c4991fcc9f63f03ad0ead4128b866a8ed115a818b6d87a3afedb726490600090a290565b6103f0610885565b6001600754600160a01b900460ff16600281111561041e57634e487b7160e01b600052602160045260246000fd5b146104705760405162461bcd60e51b815260206004820152601e60248201527f43616e27742073746172742061206e6577204c6f74746572792079657421000060448201526064015b60405180910390fd5b6007805460ff60a01b19169055565b6002546001600160a01b031633146104bf5760025460405163073e64fd60e21b81523360048201526001600160a01b039091166024820152604401610467565b6104ca83838361094b565b505050565b6001546001600160a01b031633146105225760405162461bcd60e51b815260206004820152601660248201527526bab9ba10313290383937b837b9b2b21037bbb732b960511b6044820152606401610467565b60008054336001600160a01b0319808316821784556001805490911690556040516001600160a01b0390921692909183917f8be0079c531659141344cd1fd0a4f28419497f9722a3daafe3b4186f6b6457e091a350565b6000546001600160a01b0316331480159061059f57506002546001600160a01b03163314155b156105f057336105b76000546001600160a01b031690565b60025460405163061db9c160e01b81526001600160a01b0393841660048201529183166024830152919091166044820152606401610467565b6001600160a01b0381166106175760405163d92e233d60e01b815260040160405180910390fd5b600280546001600160a01b0319166001600160a01b0383169081179091556040519081527fd1a6a14209a385a964d036e404cb5cfb71f4000cdb03c9366292430787261be69060200160405180910390a150565b600080600760009054906101000a90046001600160a01b03166001600160a01b031663feaf968c6040518163ffffffff1660e01b815260040160a06040518083038186803b1580156106bc57600080fd5b505afa1580156106d0573d6000803e3d6000fd5b505050506040513d601f19601f820116820180604052508101906106f49190610d52565b5050509150506000816402540be40061070d9190610e7d565b9050600081600654670de0b6b3a76400006107289190610e7d565b6107329190610e69565b949350505050565b6000600754600160a01b900460ff16600281111561076857634e487b7160e01b600052602160045260246000fd5b146107b55760405162461bcd60e51b815260206004820152601760248201527f4c6f7474657279206e6f7420796574206f70656e2e2e2e0000000000000000006044820152606401610467565b6107bd61066b565b3410156108035760405162461bcd60e51b8152602060048201526014602482015273105d1b19585cdd08090d4c081c995c5d5a5c995960621b6044820152606401610467565b600380546001810182556000919091527fc2575a0e9e593c00f959f8c92f12db2869c3395a3b0502d05e2516446f71f85b0180546001600160a01b03191633179055565b61084f610885565b61085881610b37565b50565b6003818154811061086b57600080fd5b6000918252602090912001546001600160a01b0316905081565b6000546001600160a01b031633146108d85760405162461bcd60e51b815260206004820152601660248201527527b7363c9031b0b63630b1363290313c9037bbb732b960511b6044820152606401610467565b565b60607f92fd13387c7fe7befbc38d303d6468778fb9731bc4583f17d92989c6fcfdeaaa8260405160240161091391511515815260200190565b60408051601f198184030181529190526020810180516001600160e01b03166001600160e01b03199093169290921790915292915050565b6002600754600160a01b900460ff16600281111561097957634e487b7160e01b600052602160045260246000fd5b146109bd5760405162461bcd60e51b8152602060048201526014602482015273596f792061726e2774207468657265207965742160601b6044820152606401610467565b6000828260008181106109e057634e487b7160e01b600052603260045260246000fd5b9050602002013511610a275760405162461bcd60e51b815260206004820152601060248201526f1c985b991bdb481b9bdd08199bdd5b9960821b6044820152606401610467565b60035460009083838381610a4b57634e487b7160e01b600052603260045260246000fd5b90506020020135610a5c9190610ea8565b905060038181548110610a7f57634e487b7160e01b600052603260045260246000fd5b6000918252602082200154600480546001600160a01b0319166001600160a01b03909216918217905560405190914780156108fc02929091818181858888f19350505050158015610ad4573d6000803e3d6000fd5b506040805160008152602081019182905251610af291600391610be1565b506007805460ff60a01b1916600160a01b1790558282600081610b2557634e487b7160e01b600052603260045260246000fd5b60200291909101356005555050505050565b6001600160a01b038116331415610b905760405162461bcd60e51b815260206004820152601760248201527f43616e6e6f74207472616e7366657220746f2073656c660000000000000000006044820152606401610467565b600180546001600160a01b0319166001600160a01b0383811691821790925560008054604051929316917fed8889f560326eb138920d842192f0eb3dd22b4f139c87a2c57538e05bae12789190a350565b828054828255906000526020600020908101928215610c36579160200282015b82811115610c3657825182546001600160a01b0319166001600160a01b03909116178255602090920191600190910190610c01565b50610c42929150610c46565b5090565b5b80821115610c425760008155600101610c47565b805169ffffffffffffffffffff81168114610c7557600080fd5b919050565b600060208284031215610c8b578081fd5b81356001600160a01b0381168114610ca1578182fd5b9392505050565b600060208284031215610cb9578081fd5b5035919050565b600060208284031215610cd1578081fd5b5051919050565b600080600060408486031215610cec578182fd5b83359250602084013567ffffffffffffffff80821115610d0a578384fd5b818601915086601f830112610d1d578384fd5b813581811115610d2b578485fd5b8760208260051b8501011115610d3f578485fd5b6020830194508093505050509250925092565b600080600080600060a08688031215610d69578081fd5b610d7286610c5b565b9450602086015193506040860151925060608601519150610d9560808701610c5b565b90509295509295909350565b6020810160038310610dc357634e487b7160e01b600052602160045260246000fd5b91905290565b6000602080835283518184015280840151604084015261ffff6040850151166060840152606084015163ffffffff80821660808601528060808701511660a0860152505060a084015160c08085015280518060e0860152835b81811015610e3f5782810184015186820161010001528301610e22565b81811115610e51578461010083880101525b50601f01601f19169390930161010001949350505050565b600082610e7857610e78610ebc565b500490565b6000816000190483118215151615610ea357634e487b7160e01b81526011600452602481fd5b500290565b600082610eb757610eb7610ebc565b500690565b634e487b7160e01b600052601260045260246000fdfea2646970667358221220430329487448f1f246bd5aa6ad1bdd37d1f25b7f60bc5b5af004e74b6ff5b84c64736f6c63430008040033",
    "sourcePath": "c:/Users/ashut/Sol_demos/smartcontract-lottery/contracts/Lottery.sol",
    "compiler": {
        "name": "solc",
        "version": "0.8.4+commit.c7e474f2"
    },
    "functionHashes": {
        "acceptOwnership()": "79ba5097",
        "endLottery()": "1593a8c7",
        "enter()": "e97dcb62",
        "getEntryFee()": "e586a4f0",
        "lottery_state()": "81447999",
        "owner()": "8da5cb5b",
        "players(uint256)": "f71d96cb",
        "randomness()": "36013189",
        "rawFulfillRandomWords(uint256,uint256[])": "1fe543e3",
        "recentWinner()": "4f8c70cf",
        "s_vrfCoordinator()": "9eccacf6",
        "setCoordinator(address)": "8ea98117",
        "startLottery()": "160344e2",
        "transferOwnership(address)": "f2fde38b",
        "usdEntryFee()": "88ab139a"
    },
    "gasEstimates": {
        "creation": {
            "codeDepositCost": "769600",
            "executionCost": "infinite",
            "totalCost": "infinite"
        },
        "external": {
            "acceptOwnership()": "44266",
            "endLottery()": "infinite",
            "enter()": "infinite",
            "getEntryFee()": "infinite",
            "lottery_state()": "1157",
            "owner()": "1076",
            "players(uint256)": "2102",
            "randomness()": "1007",
            "rawFulfillRandomWords(uint256,uint256[])": "infinite",
            "recentWinner()": "1082",
            "s_vrfCoordinator()": "1126",
            "setCoordinator(address)": "23988",
            "startLottery()": "22750",
            "transferOwnership(address)": "24470",
            "usdEntryFee()": "1007"
        },
        "internal": {
            "fulfillRandomWords(uint256,uint256[] calldata)": "infinite"
        }
    }
}