{
  "abi": [
    {
      "inputs": [
        {
          "internalType": "uint96",
          "name": "_baseFee",
          "type": "uint96"
        },
        {
          "internalType": "uint96",
          "name": "_gasPriceLink",
          "type": "uint96"
        }
      ],
      "stateMutability": "nonpayable",
      "type": "constructor"
    },
    {
      "inputs": [],
      "name": "InsufficientBalance",
      "type": "error"
    },
    {
      "inputs": [],
      "name": "InvalidConsumer",
      "type": "error"
    },
    {
      "inputs": [],
      "name": "InvalidRandomWords",
      "type": "error"
    },
    {
      "inputs": [],
      "name": "InvalidSubscription",
      "type": "error"
    },
    {
      "inputs": [
        {
          "internalType": "address",
          "name": "owner",
          "type": "address"
        }
      ],
      "name": "MustBeSubOwner",
      "type": "error"
    },
    {
      "inputs": [],
      "name": "Reentrant",
      "type": "error"
    },
    {
      "inputs": [],
      "name": "TooManyConsumers",
      "type": "error"
    },
    {
      "anonymous": false,
      "inputs": [],
      "name": "ConfigSet",
      "type": "event"
    },
    {
      "anonymous": false,
      "inputs": [
        {
          "indexed": true,
          "internalType": "uint64",
          "name": "subId",
          "type": "uint64"
        },
        {
          "indexed": false,
          "internalType": "address",
          "name": "consumer",
          "type": "address"
        }
      ],
      "name": "ConsumerAdded",
      "type": "event"
    },
    {
      "anonymous": false,
      "inputs": [
        {
          "indexed": true,
          "internalType": "uint64",
          "name": "subId",
          "type": "uint64"
        },
        {
          "indexed": false,
          "internalType": "address",
          "name": "consumer",
          "type": "address"
        }
      ],
      "name": "ConsumerRemoved",
      "type": "event"
    },
    {
      "anonymous": false,
      "inputs": [
        {
          "indexed": true,
          "internalType": "address",
          "name": "from",
          "type": "address"
        },
        {
          "indexed": true,
          "internalType": "address",
          "name": "to",
          "type": "address"
        }
      ],
      "name": "OwnershipTransferRequested",
      "type": "event"
    },
    {
      "anonymous": false,
      "inputs": [
        {
          "indexed": true,
          "internalType": "address",
          "name": "from",
          "type": "address"
        },
        {
          "indexed": true,
          "internalType": "address",
          "name": "to",
          "type": "address"
        }
      ],
      "name": "OwnershipTransferred",
      "type": "event"
    },
    {
      "anonymous": false,
      "inputs": [
        {
          "indexed": true,
          "internalType": "uint256",
          "name": "requestId",
          "type": "uint256"
        },
        {
          "indexed": false,
          "internalType": "uint256",
          "name": "outputSeed",
          "type": "uint256"
        },
        {
          "indexed": false,
          "internalType": "uint96",
          "name": "payment",
          "type": "uint96"
        },
        {
          "indexed": false,
          "internalType": "bool",
          "name": "success",
          "type": "bool"
        }
      ],
      "name": "RandomWordsFulfilled",
      "type": "event"
    },
    {
      "anonymous": false,
      "inputs": [
        {
          "indexed": true,
          "internalType": "bytes32",
          "name": "keyHash",
          "type": "bytes32"
        },
        {
          "indexed": false,
          "internalType": "uint256",
          "name": "requestId",
          "type": "uint256"
        },
        {
          "indexed": false,
          "internalType": "uint256",
          "name": "preSeed",
          "type": "uint256"
        },
        {
          "indexed": true,
          "internalType": "uint64",
          "name": "subId",
          "type": "uint64"
        },
        {
          "indexed": false,
          "internalType": "uint16",
          "name": "minimumRequestConfirmations",
          "type": "uint16"
        },
        {
          "indexed": false,
          "internalType": "uint32",
          "name": "callbackGasLimit",
          "type": "uint32"
        },
        {
          "indexed": false,
          "internalType": "uint32",
          "name": "numWords",
          "type": "uint32"
        },
        {
          "indexed": true,
          "internalType": "address",
          "name": "sender",
          "type": "address"
        }
      ],
      "name": "RandomWordsRequested",
      "type": "event"
    },
    {
      "anonymous": false,
      "inputs": [
        {
          "indexed": true,
          "internalType": "uint64",
          "name": "subId",
          "type": "uint64"
        },
        {
          "indexed": false,
          "internalType": "address",
          "name": "to",
          "type": "address"
        },
        {
          "indexed": false,
          "internalType": "uint256",
          "name": "amount",
          "type": "uint256"
        }
      ],
      "name": "SubscriptionCanceled",
      "type": "event"
    },
    {
      "anonymous": false,
      "inputs": [
        {
          "indexed": true,
          "internalType": "uint64",
          "name": "subId",
          "type": "uint64"
        },
        {
          "indexed": false,
          "internalType": "address",
          "name": "owner",
          "type": "address"
        }
      ],
      "name": "SubscriptionCreated",
      "type": "event"
    },
    {
      "anonymous": false,
      "inputs": [
        {
          "indexed": true,
          "internalType": "uint64",
          "name": "subId",
          "type": "uint64"
        },
        {
          "indexed": false,
          "internalType": "uint256",
          "name": "oldBalance",
          "type": "uint256"
        },
        {
          "indexed": false,
          "internalType": "uint256",
          "name": "newBalance",
          "type": "uint256"
        }
      ],
      "name": "SubscriptionFunded",
      "type": "event"
    },
    {
      "inputs": [],
      "name": "BASE_FEE",
      "outputs": [
        {
          "internalType": "uint96",
          "name": "",
          "type": "uint96"
        }
      ],
      "stateMutability": "view",
      "type": "function"
    },
    {
      "inputs": [],
      "name": "GAS_PRICE_LINK",
      "outputs": [
        {
          "internalType": "uint96",
          "name": "",
          "type": "uint96"
        }
      ],
      "stateMutability": "view",
      "type": "function"
    },
    {
      "inputs": [],
      "name": "MAX_CONSUMERS",
      "outputs": [
        {
          "internalType": "uint16",
          "name": "",
          "type": "uint16"
        }
      ],
      "stateMutability": "view",
      "type": "function"
    },
    {
      "inputs": [],
      "name": "acceptOwnership",
      "outputs": [],
      "stateMutability": "nonpayable",
      "type": "function"
    },
    {
      "inputs": [
        {
          "internalType": "uint64",
          "name": "",
          "type": "uint64"
        }
      ],
      "name": "acceptSubscriptionOwnerTransfer",
      "outputs": [],
      "stateMutability": "pure",
      "type": "function"
    },
    {
      "inputs": [
        {
          "internalType": "uint64",
          "name": "_subId",
          "type": "uint64"
        },
        {
          "internalType": "address",
          "name": "_consumer",
          "type": "address"
        }
      ],
      "name": "addConsumer",
      "outputs": [],
      "stateMutability": "nonpayable",
      "type": "function"
    },
    {
      "inputs": [
        {
          "internalType": "uint64",
          "name": "_subId",
          "type": "uint64"
        },
        {
          "internalType": "address",
          "name": "_to",
          "type": "address"
        }
      ],
      "name": "cancelSubscription",
      "outputs": [],
      "stateMutability": "nonpayable",
      "type": "function"
    },
    {
      "inputs": [
        {
          "internalType": "uint64",
          "name": "_subId",
          "type": "uint64"
        },
        {
          "internalType": "address",
          "name": "_consumer",
          "type": "address"
        }
      ],
      "name": "consumerIsAdded",
      "outputs": [
        {
          "internalType": "bool",
          "name": "",
          "type": "bool"
        }
      ],
      "stateMutability": "view",
      "type": "function"
    },
    {
      "inputs": [],
      "name": "createSubscription",
      "outputs": [
        {
          "internalType": "uint64",
          "name": "_subId",
          "type": "uint64"
        }
      ],
      "stateMutability": "nonpayable",
      "type": "function"
    },
    {
      "inputs": [
        {
          "internalType": "uint256",
          "name": "_requestId",
          "type": "uint256"
        },
        {
          "internalType": "address",
          "name": "_consumer",
          "type": "address"
        }
      ],
      "name": "fulfillRandomWords",
      "outputs": [],
      "stateMutability": "nonpayable",
      "type": "function"
    },
    {
      "inputs": [
        {
          "internalType": "uint256",
          "name": "_requestId",
          "type": "uint256"
        },
        {
          "internalType": "address",
          "name": "_consumer",
          "type": "address"
        },
        {
          "internalType": "uint256[]",
          "name": "_words",
          "type": "uint256[]"
        }
      ],
      "name": "fulfillRandomWordsWithOverride",
      "outputs": [],
      "stateMutability": "nonpayable",
      "type": "function"
    },
    {
      "inputs": [
        {
          "internalType": "uint64",
          "name": "_subId",
          "type": "uint64"
        },
        {
          "internalType": "uint96",
          "name": "_amount",
          "type": "uint96"
        }
      ],
      "name": "fundSubscription",
      "outputs": [],
      "stateMutability": "nonpayable",
      "type": "function"
    },
    {
      "inputs": [],
      "name": "getConfig",
      "outputs": [
        {
          "internalType": "uint16",
          "name": "minimumRequestConfirmations",
          "type": "uint16"
        },
        {
          "internalType": "uint32",
          "name": "maxGasLimit",
          "type": "uint32"
        },
        {
          "internalType": "uint32",
          "name": "stalenessSeconds",
          "type": "uint32"
        },
        {
          "internalType": "uint32",
          "name": "gasAfterPaymentCalculation",
          "type": "uint32"
        }
      ],
      "stateMutability": "pure",
      "type": "function"
    },
    {
      "inputs": [],
      "name": "getFallbackWeiPerUnitLink",
      "outputs": [
        {
          "internalType": "int256",
          "name": "",
          "type": "int256"
        }
      ],
      "stateMutability": "pure",
      "type": "function"
    },
    {
      "inputs": [],
      "name": "getFeeConfig",
      "outputs": [
        {
          "internalType": "uint32",
          "name": "fulfillmentFlatFeeLinkPPMTier1",
          "type": "uint32"
        },
        {
          "internalType": "uint32",
          "name": "fulfillmentFlatFeeLinkPPMTier2",
          "type": "uint32"
        },
        {
          "internalType": "uint32",
          "name": "fulfillmentFlatFeeLinkPPMTier3",
          "type": "uint32"
        },
        {
          "internalType": "uint32",
          "name": "fulfillmentFlatFeeLinkPPMTier4",
          "type": "uint32"
        },
        {
          "internalType": "uint32",
          "name": "fulfillmentFlatFeeLinkPPMTier5",
          "type": "uint32"
        },
        {
          "internalType": "uint24",
          "name": "reqsForTier2",
          "type": "uint24"
        },
        {
          "internalType": "uint24",
          "name": "reqsForTier3",
          "type": "uint24"
        },
        {
          "internalType": "uint24",
          "name": "reqsForTier4",
          "type": "uint24"
        },
        {
          "internalType": "uint24",
          "name": "reqsForTier5",
          "type": "uint24"
        }
      ],
      "stateMutability": "pure",
      "type": "function"
    },
    {
      "inputs": [],
      "name": "getRequestConfig",
      "outputs": [
        {
          "internalType": "uint16",
          "name": "",
          "type": "uint16"
        },
        {
          "internalType": "uint32",
          "name": "",
          "type": "uint32"
        },
        {
          "internalType": "bytes32[]",
          "name": "",
          "type": "bytes32[]"
        }
      ],
      "stateMutability": "pure",
      "type": "function"
    },
    {
      "inputs": [
        {
          "internalType": "uint64",
          "name": "_subId",
          "type": "uint64"
        }
      ],
      "name": "getSubscription",
      "outputs": [
        {
          "internalType": "uint96",
          "name": "balance",
          "type": "uint96"
        },
        {
          "internalType": "uint64",
          "name": "reqCount",
          "type": "uint64"
        },
        {
          "internalType": "address",
          "name": "owner",
          "type": "address"
        },
        {
          "internalType": "address[]",
          "name": "consumers",
          "type": "address[]"
        }
      ],
      "stateMutability": "view",
      "type": "function"
    },
    {
      "inputs": [],
      "name": "owner",
      "outputs": [
        {
          "internalType": "address",
          "name": "",
          "type": "address"
        }
      ],
      "stateMutability": "view",
      "type": "function"
    },
    {
      "inputs": [
        {
          "internalType": "uint64",
          "name": "",
          "type": "uint64"
        }
      ],
      "name": "pendingRequestExists",
      "outputs": [
        {
          "internalType": "bool",
          "name": "",
          "type": "bool"
        }
      ],
      "stateMutability": "pure",
      "type": "function"
    },
    {
      "inputs": [
        {
          "internalType": "uint64",
          "name": "_subId",
          "type": "uint64"
        },
        {
          "internalType": "address",
          "name": "_consumer",
          "type": "address"
        }
      ],
      "name": "removeConsumer",
      "outputs": [],
      "stateMutability": "nonpayable",
      "type": "function"
    },
    {
      "inputs": [
        {
          "internalType": "bytes32",
          "name": "_keyHash",
          "type": "bytes32"
        },
        {
          "internalType": "uint64",
          "name": "_subId",
          "type": "uint64"
        },
        {
          "internalType": "uint16",
          "name": "_minimumRequestConfirmations",
          "type": "uint16"
        },
        {
          "internalType": "uint32",
          "name": "_callbackGasLimit",
          "type": "uint32"
        },
        {
          "internalType": "uint32",
          "name": "_numWords",
          "type": "uint32"
        }
      ],
      "name": "requestRandomWords",
      "outputs": [
        {
          "internalType": "uint256",
          "name": "",
          "type": "uint256"
        }
      ],
      "stateMutability": "nonpayable",
      "type": "function"
    },
    {
      "inputs": [
        {
          "internalType": "uint64",
          "name": "",
          "type": "uint64"
        },
        {
          "internalType": "address",
          "name": "",
          "type": "address"
        }
      ],
      "name": "requestSubscriptionOwnerTransfer",
      "outputs": [],
      "stateMutability": "pure",
      "type": "function"
    },
    {
      "inputs": [],
      "name": "setConfig",
      "outputs": [],
      "stateMutability": "nonpayable",
      "type": "function"
    },
    {
      "inputs": [
        {
          "internalType": "address",
          "name": "to",
          "type": "address"
        }
      ],
      "name": "transferOwnership",
      "outputs": [],
      "stateMutability": "nonpayable",
      "type": "function"
    }
  ],
  "bytecode": "60e0604052606460c0819052600160045560055534801561001f57600080fd5b50604051611cab380380611cab83398101604081905261003e91610254565b33806000816100945760405162461bcd60e51b815260206004820152601860248201527f43616e6e6f7420736574206f776e657220746f207a65726f000000000000000060448201526064015b60405180910390fd5b600080546001600160a01b0319166001600160a01b03848116919091179091558116156100c4576100c4816100e9565b5050506001600160601b03808316608052811660a0526100e2610192565b5050610287565b336001600160a01b038216036101415760405162461bcd60e51b815260206004820152601760248201527f43616e6e6f74207472616e7366657220746f2073656c66000000000000000000604482015260640161008b565b600180546001600160a01b0319166001600160a01b0383811691821790925560008054604051929316917fed8889f560326eb138920d842192f0eb3dd22b4f139c87a2c57538e05bae12789190a350565b61019a6101dc565b604080516020810182526000908190526002805460ff1916905590517f4b2974a542484cba2783812ff8033f7fc682cac2fe0905c28c5e27869b3155be9190a1565b6000546001600160a01b031633146102365760405162461bcd60e51b815260206004820152601660248201527f4f6e6c792063616c6c61626c65206279206f776e657200000000000000000000604482015260640161008b565b565b80516001600160601b038116811461024f57600080fd5b919050565b6000806040838503121561026757600080fd5b61027083610238565b915061027e60208401610238565b90509250929050565b60805160a05160c0516119e06102cb600039600081816102690152610a9c01526000818161033501526106d60152600081816101ca015261071901526119e06000f3fe608060405234801561001057600080fd5b50600436106101575760003560e01c80638b673e7a116100c3578063afc69b531161007c578063afc69b531461037a578063c3f909d41461038d578063d7ae1d30146103b8578063e82ad7d4146103cb578063ed5eb06d146103ee578063f2fde38b1461040157600080fd5b80638b673e7a146102da5780638da5cb5b146102e25780639f87fad7146102fd578063a21a23e414610310578063a410347f14610330578063a47c76961461035757600080fd5b80635fbbc0d2116101155780635fbbc0d21461021757806364d51a2a146102645780637341c10c1461029e57806379ba5097146102b1578063808974ff146102b957806382359740146102cc57600080fd5b80620122911461015c57806304c357cb1461018657806308e3898e1461019b578063356dac71146101ae5780633d18651e146101c55780635d3b1d3014610204575b600080fd5b6040805160008152602081019182905261017d91600391621e8480916114ca565b60405180910390f35b61019961019436600461155d565b610414565b005b6101996101a93660046115a6565b610453565b660e35fa931a00005b60405190815260200161017d565b6101ec7f000000000000000000000000000000000000000000000000000000000000000081565b6040516001600160601b03909116815260200161017d565b6101b76102123660046116a0565b610861565b60408051620186a080825260208201819052918101829052606081018290526080810191909152600060a0820181905260c0820181905260e082018190526101008201526101200161017d565b61028b7f000000000000000000000000000000000000000000000000000000000000000081565b60405161ffff909116815260200161017d565b6101996102ac36600461155d565b610a08565b610199610b69565b6101996102c7366004611707565b610c13565b61019961019436600461172a565b610199610c57565b6000546040516001600160a01b03909116815260200161017d565b61019961030b36600461155d565b610ca1565b610318610ed2565b6040516001600160401b03909116815260200161017d565b6101ec7f000000000000000000000000000000000000000000000000000000000000000081565b61036a61036536600461172a565b610fa2565b60405161017d949392919061174c565b6101996103883660046117cd565b61108e565b6040805160048152622625a06020820152610a8c91810191909152618205606082015260800161017d565b6101996103c636600461155d565b61118a565b6103de6103d936600461172a565b6112af565b604051901515815260200161017d565b6103de6103fc36600461155d565b6112ec565b61019961040f366004611810565b6113b8565b60405162461bcd60e51b815260206004820152600f60248201526e1b9bdd081a5b5c1b195b595b9d1959608a1b60448201526064015b60405180910390fd5b60005a6000858152600860205260408120549192506001600160401b0390911690036104b75760405162461bcd60e51b81526020600482015260136024820152721b9bdb995e1a5cdd195b9d081c995c5d595cdd606a1b604482015260640161044a565b6000848152600860209081526040808320815160608101835290546001600160401b038116825263ffffffff600160401b8204811694830194909452600160601b90049092169082015283519091036105c557806040015163ffffffff166001600160401b0381111561052c5761052c611590565b604051908082528060200260200182016040528015610555578160200160208202803683370190505b50925060005b816040015163ffffffff168110156105bf5760408051602081018890529081018290526060016040516020818303038152906040528051906020012060001c8482815181106105ac576105ac61182b565b602090810291909101015260010161055b565b506105f0565b806040015163ffffffff168351146105f057604051631f9efadb60e11b815260040160405180910390fd5b600080631fe543e360e01b878660405160240161060e929190611841565b60408051601f19818403018152918152602080830180516001600160e01b03166001600160e01b0319909516949094179093526002805460ff191660011790559185015191519092506000916001600160a01b0389169163ffffffff90911690610679908590611890565b60006040518083038160008787f1925050503d80600081146106b7576040519150601f19603f3d011682016040523d82523d6000602084013e6106bc565b606091505b50506002805460ff19169055905060006001600160601b037f0000000000000000000000000000000000000000000000000000000000000000165a61070190886118d5565b61070b91906118e8565b61073e906001600160601b037f0000000000000000000000000000000000000000000000000000000000000000166118ff565b85516001600160401b03166000908152600660205260409020549091506001600160601b03808316600160a01b90920416101561078e57604051631e9acf1760e31b815260040160405180910390fd5b84516001600160401b0316600090815260066020526040902080548291906014906107ca908490600160a01b90046001600160601b0316611912565b82546101009290920a6001600160601b0381810219909316918316021790915560008b81526008602090815260409182902080546fffffffffffffffffffffffffffffffff1916905581518d815292851690830152841515908201528a91507f7dffc5ae5ee4e2e4df1651cf6ad329a73cebdb728f37ea0187b9b17e036756e49060600160405180910390a2505050505050505050565b60025460009060ff16156108885760405163769dd35360e11b815260040160405180910390fd5b843361089482826112ec565b6108b1576040516371e8313760e01b815260040160405180910390fd5b6001600160401b0387166000908152600660205260409020546001600160a01b03166108f057604051630fb532db60e11b815260040160405180910390fd5b600480546000918261090183611931565b9091555060058054919250600091908261091a83611931565b9091555060408051606080820183526001600160401b038d811680845263ffffffff8d811660208087018281528f8416888a0181815260008e8152600885528b902099518a54935191518716600160601b0263ffffffff60601b1992909716600160401b026bffffffffffffffffffffffff19909416981697909717919091179590951692909217909555855189815290810187905261ffff8f16818701529283019390935260808201529151929350339290918d917f63373d1c4696214b898952999c9aaec57dac1ee2723cec59bea6888f489a97729160a0908290030190a45098975050505050505050565b6001600160401b03821660009081526006602052604090205482906001600160a01b031680610a4a57604051630fb532db60e11b815260040160405180910390fd5b336001600160a01b03821614610a7e57604051636c51fda960e11b81526001600160a01b038216600482015260240161044a565b6001600160401b03841660009081526007602052604090205461ffff7f0000000000000000000000000000000000000000000000000000000000000000169003610adb576040516305a48e0f60e01b815260040160405180910390fd5b610ae584846112ec565b610b63576001600160401b038416600081815260076020908152604080832080546001810182559084529282902090920180546001600160a01b0319166001600160a01b03881690811790915591519182527f752ead9f4536ec1319ee3a5a604e1d65eded22e0924251552ba14ae4faa1bbc3910160405180910390a25b50505050565b6001546001600160a01b03163314610bbc5760405162461bcd60e51b815260206004820152601660248201527526bab9ba10313290383937b837b9b2b21037bbb732b960511b604482015260640161044a565b60008054336001600160a01b0319808316821784556001805490911690556040516001600160a01b0390921692909183917f8be0079c531659141344cd1fd0a4f28419497f9722a3daafe3b4186f6b6457e091a350565b60025460ff1615610c375760405163769dd35360e11b815260040160405180910390fd5b604080516000815260208101909152610c539083908390610453565b5050565b610c5f6113cc565b604080516020810182526000908190526002805460ff1916905590517f4b2974a542484cba2783812ff8033f7fc682cac2fe0905c28c5e27869b3155be9190a1565b6001600160401b03821660009081526006602052604090205482906001600160a01b031680610ce357604051630fb532db60e11b815260040160405180910390fd5b336001600160a01b03821614610d1757604051636c51fda960e11b81526001600160a01b038216600482015260240161044a565b8383610d2382826112ec565b610d40576040516371e8313760e01b815260040160405180910390fd5b60025460ff1615610d645760405163769dd35360e11b815260040160405180910390fd5b6001600160401b0386166000908152600760205260408120905b8154811015610e8157866001600160a01b0316828281548110610da357610da361182b565b6000918252602090912001546001600160a01b031603610e795781546000908390610dd0906001906118d5565b81548110610de057610de061182b565b9060005260206000200160009054906101000a90046001600160a01b0316905080838381548110610e1357610e1361182b565b9060005260206000200160006101000a8154816001600160a01b0302191690836001600160a01b0316021790555082805480610e5157610e5161194a565b600082815260209020810160001990810180546001600160a01b031916905501905550610e81565b600101610d7e565b506040516001600160a01b03871681526001600160401b038816907ff9bc9d5b5733d904409def43a5ecc888dbdac9a95687780d8fd489d3bb3813fc9060200160405180910390a250505050505050565b600380546000916001600160401b039091169082610eef83611960565b82546001600160401b039182166101009390930a928302928202191691909117909155604080518082018252338082526000602080840182815260038054881684526006835292869020945190516001600160601b0316600160a01b026001600160a01b03909116179093555492519081529190921692507f464722b4166576d3dcbba877b999bc35cf911f4eaf434b7eba68fa113951d0bf910160405180910390a2506003546001600160401b031690565b6001600160401b038116600090815260066020526040812054819081906060906001600160a01b0316610fe857604051630fb532db60e11b815260040160405180910390fd5b6001600160401b0385166000908152600660209081526040808320546007835281842080548351818602810186019094528084526001600160601b03600160a01b84041695946001600160a01b0390931693919283919083018282801561107857602002820191906000526020600020905b81546001600160a01b0316815260019091019060200180831161105a575b5050505050905093509350935093509193509193565b6001600160401b0382166000908152600660205260409020546001600160a01b03166110cd57604051630fb532db60e11b815260040160405180910390fd5b6001600160401b03821660009081526006602052604090208054600160a01b90046001600160601b03169082906014611106838561198b565b92506101000a8154816001600160601b0302191690836001600160601b03160217905550826001600160401b03167fd39ec07f4e209f627a4c427971473820dc129761ba28de8906bd56f57101d4f8828484611162919061198b565b604080516001600160601b0393841681529290911660208301520160405180910390a2505050565b6001600160401b03821660009081526006602052604090205482906001600160a01b0316806111cc57604051630fb532db60e11b815260040160405180910390fd5b336001600160a01b0382161461120057604051636c51fda960e11b81526001600160a01b038216600482015260240161044a565b60025460ff16156112245760405163769dd35360e11b815260040160405180910390fd5b6001600160401b0384166000818152600660209081526040918290205482516001600160a01b0388168152600160a01b9091046001600160601b0316918101919091527fe8ed5b475a5b5987aa9165e8731bb78043f39eee32ec5a1169a89e27fcd49815910160405180910390a25050506001600160401b0316600090815260066020526040812055565b60405162461bcd60e51b815260206004820152600f60248201526e1b9bdd081a5b5c1b195b595b9d1959608a1b604482015260009060640161044a565b6001600160401b03821660009081526007602090815260408083208054825181850281018501909352808352849383018282801561135357602002820191906000526020600020905b81546001600160a01b03168152600190910190602001808311611335575b5050505050905060005b81518110156113ab57836001600160a01b03168282815181106113825761138261182b565b60200260200101516001600160a01b0316036113a3576001925050506113b2565b60010161135d565b5060009150505b92915050565b6113c06113cc565b6113c981611421565b50565b6000546001600160a01b0316331461141f5760405162461bcd60e51b815260206004820152601660248201527527b7363c9031b0b63630b1363290313c9037bbb732b960511b604482015260640161044a565b565b336001600160a01b038216036114795760405162461bcd60e51b815260206004820152601760248201527f43616e6e6f74207472616e7366657220746f2073656c66000000000000000000604482015260640161044a565b600180546001600160a01b0319166001600160a01b0383811691821790925560008054604051929316917fed8889f560326eb138920d842192f0eb3dd22b4f139c87a2c57538e05bae12789190a350565b60006060820161ffff8616835263ffffffff851660208401526060604084015280845180835260808501915060208601925060005b8181101561151d5783518352602093840193909201916001016114ff565b5090979650505050505050565b80356001600160401b038116811461154157600080fd5b919050565b80356001600160a01b038116811461154157600080fd5b6000806040838503121561157057600080fd5b6115798361152a565b915061158760208401611546565b90509250929050565b634e487b7160e01b600052604160045260246000fd5b6000806000606084860312156115bb57600080fd5b833592506115cb60208501611546565b915060408401356001600160401b038111156115e657600080fd5b8401601f810186136115f757600080fd5b80356001600160401b0381111561161057611610611590565b8060051b604051601f19603f83011681018181106001600160401b038211171561163c5761163c611590565b60405291825260208184018101929081018984111561165a57600080fd5b6020850194505b8385101561167d57843580825260209586019590935001611661565b50809450505050509250925092565b803563ffffffff8116811461154157600080fd5b600080600080600060a086880312156116b857600080fd5b853594506116c86020870161152a565b9350604086013561ffff811681146116df57600080fd5b92506116ed6060870161168c565b91506116fb6080870161168c565b90509295509295909350565b6000806040838503121561171a57600080fd5b8235915061158760208401611546565b60006020828403121561173c57600080fd5b6117458261152a565b9392505050565b6001600160601b03851681526001600160401b0384166020808301919091526001600160a01b0384166040830152608060608301819052835190830181905260009184019060a0840190835b818110156117bf5783516001600160a01b0316835260209384019390920191600101611798565b509098975050505050505050565b600080604083850312156117e057600080fd5b6117e98361152a565b915060208301356001600160601b038116811461180557600080fd5b809150509250929050565b60006020828403121561182257600080fd5b61174582611546565b634e487b7160e01b600052603260045260246000fd5b6000604082018483526040602084015280845180835260608501915060208601925060005b81811015611884578351835260209384019390920191600101611866565b50909695505050505050565b6000825160005b818110156118b15760208186018101518583015201611897565b506000920191825250919050565b634e487b7160e01b600052601160045260246000fd5b818103818111156113b2576113b26118bf565b80820281158282048414176113b2576113b26118bf565b808201808211156113b2576113b26118bf565b6001600160601b0382811682821603908111156113b2576113b26118bf565b600060018201611943576119436118bf565b5060010190565b634e487b7160e01b600052603160045260246000fd5b60006001600160401b0382166001600160401b038103611982576119826118bf565b60010192915050565b6001600160601b0381811683821601908111156113b2576113b26118bf56fea2646970667358221220059b6e410a37a0f7a2a4693b3bb0b634ef5fc1e264f0a9926a9205ff241f55c464736f6c634300081a0033",
  "bytecodeSha1": "290d08e8a3aa3186c6ea5f390d2c7a1ed52c9ac3",
  "compiler": {
    "evm_version": "istanbul",
    "optimizer": {
      "enabled": true,
      "runs": 200
    },
    "version": "0.8.26+commit.8a97fa7a"
  },
  "contractName": "VRFCoordinatorV2Mock",
  "language": "Solidity",
  "natspec": {
    "kind": "dev",
    "methods": {
      "acceptOwnership()": {
        "notice": "Allows an ownership transfer to be completed by the recipient."
      },
      "createSubscription()": {
        "details": "You can manage the consumer set dynamically with addConsumer/removeConsumer.Note to fund the subscription, use transferAndCall. For exampleLINKTOKEN.transferAndCall(address(COORDINATOR),amount,abi.encode(subId));",
        "notice": "Create a VRF subscription.",
        "returns": {
          "_subId": "- A unique subscription id."
        }
      },
      "fulfillRandomWords(uint256,address)": {
        "details": "This mock uses a simplified formula for calculating payment amount and gas usage, and doesnot account for all edge cases handled in the real VRF coordinator. When making requestsagainst the real coordinator a small amount of additional LINK is required.",
        "notice": "fulfillRandomWords fulfills the given request, sending the random words to the suppliedconsumer.",
        "params": {
          "_consumer": "the VRF randomness consumer to send the result to",
          "_requestId": "the request to fulfill"
        }
      },
      "fulfillRandomWordsWithOverride(uint256,address,uint256[])": {
        "notice": "fulfillRandomWordsWithOverride allows the user to pass in their own random words.",
        "params": {
          "_consumer": "the VRF randomness consumer to send the result to",
          "_requestId": "the request to fulfill",
          "_words": "user-provided random words"
        }
      },
      "fundSubscription(uint64,uint96)": {
        "notice": "fundSubscription allows funding a subscription with an arbitrary amount for testing.",
        "params": {
          "_amount": "the amount to fund",
          "_subId": "the subscription to fund"
        }
      },
      "getRequestConfig()": {
        "notice": "Get configuration relevant for making requests",
        "returns": {
          "_0": "minimumRequestConfirmations global min for request confirmations",
          "_1": "maxGasLimit global max for request gas limit",
          "_2": "s_provingKeyHashes list of registered key hashes"
        }
      },
      "owner()": {
        "notice": "Get the current owner"
      },
      "setConfig()": {
        "notice": "Sets the configuration of the vrfv2 mock coordinator"
      },
      "transferOwnership(address)": {
        "notice": "Allows an owner to begin transferring ownership to a new address."
      }
    },
    "version": 1
  },
  "opcodes": "PUSH1 0x80 PUSH1 0x40 MSTORE CALLVALUE DUP1 ISZERO PUSH2 0x10 JUMPI PUSH1 0x0 DUP1 REVERT JUMPDEST POP PUSH1 0x4 CALLDATASIZE LT PUSH2 0x157 JUMPI PUSH1 0x0 CALLDATALOAD PUSH1 0xE0 SHR DUP1 PUSH4 0x8B673E7A GT PUSH2 0xC3 JUMPI DUP1 PUSH4 0xAFC69B53 GT PUSH2 0x7C JUMPI DUP1 PUSH4 0xAFC69B53 EQ PUSH2 0x37A JUMPI DUP1 PUSH4 0xC3F909D4 EQ PUSH2 0x38D JUMPI DUP1 PUSH4 0xD7AE1D30 EQ PUSH2 0x3B8 JUMPI DUP1 PUSH4 0xE82AD7D4 EQ PUSH2 0x3CB JUMPI DUP1 PUSH4 0xED5EB06D EQ PUSH2 0x3EE JUMPI DUP1 PUSH4 0xF2FDE38B EQ PUSH2 0x401 JUMPI PUSH1 0x0 DUP1 REVERT JUMPDEST DUP1 PUSH4 0x8B673E7A EQ PUSH2 0x2DA JUMPI DUP1 PUSH4 0x8DA5CB5B EQ PUSH2 0x2E2 JUMPI DUP1 PUSH4 0x9F87FAD7 EQ PUSH2 0x2FD JUMPI DUP1 PUSH4 0xA21A23E4 EQ PUSH2 0x310 JUMPI DUP1 PUSH4 0xA410347F EQ PUSH2 0x330 JUMPI DUP1 PUSH4 0xA47C7696 EQ PUSH2 0x357 JUMPI PUSH1 0x0 DUP1 REVERT JUMPDEST DUP1 PUSH4 0x5FBBC0D2 GT PUSH2 0x115 JUMPI DUP1 PUSH4 0x5FBBC0D2 EQ PUSH2 0x217 JUMPI DUP1 PUSH4 0x64D51A2A EQ PUSH2 0x264 JUMPI DUP1 PUSH4 0x7341C10C EQ PUSH2 0x29E JUMPI DUP1 PUSH4 0x79BA5097 EQ PUSH2 0x2B1 JUMPI DUP1 PUSH4 0x808974FF EQ PUSH2 0x2B9 JUMPI DUP1 PUSH4 0x82359740 EQ PUSH2 0x2CC JUMPI PUSH1 0x0 DUP1 REVERT JUMPDEST DUP1 PUSH3 0x12291 EQ PUSH2 0x15C JUMPI DUP1 PUSH4 0x4C357CB EQ PUSH2 0x186 JUMPI DUP1 PUSH4 0x8E3898E EQ PUSH2 0x19B JUMPI DUP1 PUSH4 0x356DAC71 EQ PUSH2 0x1AE JUMPI DUP1 PUSH4 0x3D18651E EQ PUSH2 0x1C5 JUMPI DUP1 PUSH4 0x5D3B1D30 EQ PUSH2 0x204 JUMPI JUMPDEST PUSH1 0x0 DUP1 REVERT JUMPDEST PUSH1 0x40 DUP1 MLOAD PUSH1 0x0 DUP2 MSTORE PUSH1 0x20 DUP2 ADD SWAP2 DUP3 SWAP1 MSTORE PUSH2 0x17D SWAP2 PUSH1 0x3 SWAP2 PUSH3 0x1E8480 SWAP2 PUSH2 0x14CA JUMP JUMPDEST PUSH1 0x40 MLOAD DUP1 SWAP2 SUB SWAP1 RETURN JUMPDEST PUSH2 0x199 PUSH2 0x194 CALLDATASIZE PUSH1 0x4 PUSH2 0x155D JUMP JUMPDEST PUSH2 0x414 JUMP JUMPDEST STOP JUMPDEST PUSH2 0x199 PUSH2 0x1A9 CALLDATASIZE PUSH1 0x4 PUSH2 0x15A6 JUMP JUMPDEST PUSH2 0x453 JUMP JUMPDEST PUSH7 0xE35FA931A0000 JUMPDEST PUSH1 0x40 MLOAD SWAP1 DUP2 MSTORE PUSH1 0x20 ADD PUSH2 0x17D JUMP JUMPDEST PUSH2 0x1EC PUSH32 0x0 DUP2 JUMP JUMPDEST PUSH1 0x40 MLOAD PUSH1 0x1 PUSH1 0x1 PUSH1 0x60 SHL SUB SWAP1 SWAP2 AND DUP2 MSTORE PUSH1 0x20 ADD PUSH2 0x17D JUMP JUMPDEST PUSH2 0x1B7 PUSH2 0x212 CALLDATASIZE PUSH1 0x4 PUSH2 0x16A0 JUMP JUMPDEST PUSH2 0x861 JUMP JUMPDEST PUSH1 0x40 DUP1 MLOAD PUSH3 0x186A0 DUP1 DUP3 MSTORE PUSH1 0x20 DUP3 ADD DUP2 SWAP1 MSTORE SWAP2 DUP2 ADD DUP3 SWAP1 MSTORE PUSH1 0x60 DUP2 ADD DUP3 SWAP1 MSTORE PUSH1 0x80 DUP2 ADD SWAP2 SWAP1 SWAP2 MSTORE PUSH1 0x0 PUSH1 0xA0 DUP3 ADD DUP2 SWAP1 MSTORE PUSH1 0xC0 DUP3 ADD DUP2 SWAP1 MSTORE PUSH1 0xE0 DUP3 ADD DUP2 SWAP1 MSTORE PUSH2 0x100 DUP3 ADD MSTORE PUSH2 0x120 ADD PUSH2 0x17D JUMP JUMPDEST PUSH2 0x28B PUSH32 0x0 DUP2 JUMP JUMPDEST PUSH1 0x40 MLOAD PUSH2 0xFFFF SWAP1 SWAP2 AND DUP2 MSTORE PUSH1 0x20 ADD PUSH2 0x17D JUMP JUMPDEST PUSH2 0x199 PUSH2 0x2AC CALLDATASIZE PUSH1 0x4 PUSH2 0x155D JUMP JUMPDEST PUSH2 0xA08 JUMP JUMPDEST PUSH2 0x199 PUSH2 0xB69 JUMP JUMPDEST PUSH2 0x199 PUSH2 0x2C7 CALLDATASIZE PUSH1 0x4 PUSH2 0x1707 JUMP JUMPDEST PUSH2 0xC13 JUMP JUMPDEST PUSH2 0x199 PUSH2 0x194 CALLDATASIZE PUSH1 0x4 PUSH2 0x172A JUMP JUMPDEST PUSH2 0x199 PUSH2 0xC57 JUMP JUMPDEST PUSH1 0x0 SLOAD PUSH1 0x40 MLOAD PUSH1 0x1 PUSH1 0x1 PUSH1 0xA0 SHL SUB SWAP1 SWAP2 AND DUP2 MSTORE PUSH1 0x20 ADD PUSH2 0x17D JUMP JUMPDEST PUSH2 0x199 PUSH2 0x30B CALLDATASIZE PUSH1 0x4 PUSH2 0x155D JUMP JUMPDEST PUSH2 0xCA1 JUMP JUMPDEST PUSH2 0x318 PUSH2 0xED2 JUMP JUMPDEST PUSH1 0x40 MLOAD PUSH1 0x1 PUSH1 0x1 PUSH1 0x40 SHL SUB SWAP1 SWAP2 AND DUP2 MSTORE PUSH1 0x20 ADD PUSH2 0x17D JUMP JUMPDEST PUSH2 0x1EC PUSH32 0x0 DUP2 JUMP JUMPDEST PUSH2 0x36A PUSH2 0x365 CALLDATASIZE PUSH1 0x4 PUSH2 0x172A JUMP JUMPDEST PUSH2 0xFA2 JUMP JUMPDEST PUSH1 0x40 MLOAD PUSH2 0x17D SWAP5 SWAP4 SWAP3 SWAP2 SWAP1 PUSH2 0x174C JUMP JUMPDEST PUSH2 0x199 PUSH2 0x388 CALLDATASIZE PUSH1 0x4 PUSH2 0x17CD JUMP JUMPDEST PUSH2 0x108E JUMP JUMPDEST PUSH1 0x40 DUP1 MLOAD PUSH1 0x4 DUP2 MSTORE PUSH3 0x2625A0 PUSH1 0x20 DUP3 ADD MSTORE PUSH2 0xA8C SWAP2 DUP2 ADD SWAP2 SWAP1 SWAP2 MSTORE PUSH2 0x8205 PUSH1 0x60 DUP3 ADD MSTORE PUSH1 0x80 ADD PUSH2 0x17D JUMP JUMPDEST PUSH2 0x199 PUSH2 0x3C6 CALLDATASIZE PUSH1 0x4 PUSH2 0x155D JUMP JUMPDEST PUSH2 0x118A JUMP JUMPDEST PUSH2 0x3DE PUSH2 0x3D9 CALLDATASIZE PUSH1 0x4 PUSH2 0x172A JUMP JUMPDEST PUSH2 0x12AF JUMP JUMPDEST PUSH1 0x40 MLOAD SWAP1 ISZERO ISZERO DUP2 MSTORE PUSH1 0x20 ADD PUSH2 0x17D JUMP JUMPDEST PUSH2 0x3DE PUSH2 0x3FC CALLDATASIZE PUSH1 0x4 PUSH2 0x155D JUMP JUMPDEST PUSH2 0x12EC JUMP JUMPDEST PUSH2 0x199 PUSH2 0x40F CALLDATASIZE PUSH1 0x4 PUSH2 0x1810 JUMP JUMPDEST PUSH2 0x13B8 JUMP JUMPDEST PUSH1 0x40 MLOAD PUSH3 0x461BCD PUSH1 0xE5 SHL DUP2 MSTORE PUSH1 0x20 PUSH1 0x4 DUP3 ADD MSTORE PUSH1 0xF PUSH1 0x24 DUP3 ADD MSTORE PUSH15 0x1B9BDD081A5B5C1B195B595B9D1959 PUSH1 0x8A SHL PUSH1 0x44 DUP3 ADD MSTORE PUSH1 0x64 ADD JUMPDEST PUSH1 0x40 MLOAD DUP1 SWAP2 SUB SWAP1 REVERT JUMPDEST PUSH1 0x0 GAS PUSH1 0x0 DUP6 DUP2 MSTORE PUSH1 0x8 PUSH1 0x20 MSTORE PUSH1 0x40 DUP2 KECCAK256 SLOAD SWAP2 SWAP3 POP PUSH1 0x1 PUSH1 0x1 PUSH1 0x40 SHL SUB SWAP1 SWAP2 AND SWAP1 SUB PUSH2 0x4B7 JUMPI PUSH1 0x40 MLOAD PUSH3 0x461BCD PUSH1 0xE5 SHL DUP2 MSTORE PUSH1 0x20 PUSH1 0x4 DUP3 ADD MSTORE PUSH1 0x13 PUSH1 0x24 DUP3 ADD MSTORE PUSH19 0x1B9BDB995E1A5CDD195B9D081C995C5D595CDD PUSH1 0x6A SHL PUSH1 0x44 DUP3 ADD MSTORE PUSH1 0x64 ADD PUSH2 0x44A JUMP JUMPDEST PUSH1 0x0 DUP5 DUP2 MSTORE PUSH1 0x8 PUSH1 0x20 SWAP1 DUP2 MSTORE PUSH1 0x40 DUP1 DUP4 KECCAK256 DUP2 MLOAD PUSH1 0x60 DUP2 ADD DUP4 MSTORE SWAP1 SLOAD PUSH1 0x1 PUSH1 0x1 PUSH1 0x40 SHL SUB DUP2 AND DUP3 MSTORE PUSH4 0xFFFFFFFF PUSH1 0x1 PUSH1 0x40 SHL DUP3 DIV DUP2 AND SWAP5 DUP4 ADD SWAP5 SWAP1 SWAP5 MSTORE PUSH1 0x1 PUSH1 0x60 SHL SWAP1 DIV SWAP1 SWAP3 AND SWAP1 DUP3 ADD MSTORE DUP4 MLOAD SWAP1 SWAP2 SUB PUSH2 0x5C5 JUMPI DUP1 PUSH1 0x40 ADD MLOAD PUSH4 0xFFFFFFFF AND PUSH1 0x1 PUSH1 0x1 PUSH1 0x40 SHL SUB DUP2 GT ISZERO PUSH2 0x52C JUMPI PUSH2 0x52C PUSH2 0x1590 JUMP JUMPDEST PUSH1 0x40 MLOAD SWAP1 DUP1 DUP3 MSTORE DUP1 PUSH1 0x20 MUL PUSH1 0x20 ADD DUP3 ADD PUSH1 0x40 MSTORE DUP1 ISZERO PUSH2 0x555 JUMPI DUP2 PUSH1 0x20 ADD PUSH1 0x20 DUP3 MUL DUP1 CALLDATASIZE DUP4 CALLDATACOPY ADD SWAP1 POP JUMPDEST POP SWAP3 POP PUSH1 0x0 JUMPDEST DUP2 PUSH1 0x40 ADD MLOAD PUSH4 0xFFFFFFFF AND DUP2 LT ISZERO PUSH2 0x5BF JUMPI PUSH1 0x40 DUP1 MLOAD PUSH1 0x20 DUP2 ADD DUP9 SWAP1 MSTORE SWAP1 DUP2 ADD DUP3 SWAP1 MSTORE PUSH1 0x60 ADD PUSH1 0x40 MLOAD PUSH1 0x20 DUP2 DUP4 SUB SUB DUP2 MSTORE SWAP1 PUSH1 0x40 MSTORE DUP1 MLOAD SWAP1 PUSH1 0x20 ADD KECCAK256 PUSH1 0x0 SHR DUP5 DUP3 DUP2 MLOAD DUP2 LT PUSH2 0x5AC JUMPI PUSH2 0x5AC PUSH2 0x182B JUMP JUMPDEST PUSH1 0x20 SWAP1 DUP2 MUL SWAP2 SWAP1 SWAP2 ADD ADD MSTORE PUSH1 0x1 ADD PUSH2 0x55B JUMP JUMPDEST POP PUSH2 0x5F0 JUMP JUMPDEST DUP1 PUSH1 0x40 ADD MLOAD PUSH4 0xFFFFFFFF AND DUP4 MLOAD EQ PUSH2 0x5F0 JUMPI PUSH1 0x40 MLOAD PUSH4 0x1F9EFADB PUSH1 0xE1 SHL DUP2 MSTORE PUSH1 0x4 ADD PUSH1 0x40 MLOAD DUP1 SWAP2 SUB SWAP1 REVERT JUMPDEST PUSH1 0x0 DUP1 PUSH4 0x1FE543E3 PUSH1 0xE0 SHL DUP8 DUP7 PUSH1 0x40 MLOAD PUSH1 0x24 ADD PUSH2 0x60E SWAP3 SWAP2 SWAP1 PUSH2 0x1841 JUMP JUMPDEST PUSH1 0x40 DUP1 MLOAD PUSH1 0x1F NOT DUP2 DUP5 SUB ADD DUP2 MSTORE SWAP2 DUP2 MSTORE PUSH1 0x20 DUP1 DUP4 ADD DUP1 MLOAD PUSH1 0x1 PUSH1 0x1 PUSH1 0xE0 SHL SUB AND PUSH1 0x1 PUSH1 0x1 PUSH1 0xE0 SHL SUB NOT SWAP1 SWAP6 AND SWAP5 SWAP1 SWAP5 OR SWAP1 SWAP4 MSTORE PUSH1 0x2 DUP1 SLOAD PUSH1 0xFF NOT AND PUSH1 0x1 OR SWAP1 SSTORE SWAP2 DUP6 ADD MLOAD SWAP2 MLOAD SWAP1 SWAP3 POP PUSH1 0x0 SWAP2 PUSH1 0x1 PUSH1 0x1 PUSH1 0xA0 SHL SUB DUP10 AND SWAP2 PUSH4 0xFFFFFFFF SWAP1 SWAP2 AND SWAP1 PUSH2 0x679 SWAP1 DUP6 SWAP1 PUSH2 0x1890 JUMP JUMPDEST PUSH1 0x0 PUSH1 0x40 MLOAD DUP1 DUP4 SUB DUP2 PUSH1 0x0 DUP8 DUP8 CALL SWAP3 POP POP POP RETURNDATASIZE DUP1 PUSH1 0x0 DUP2 EQ PUSH2 0x6B7 JUMPI PUSH1 0x40 MLOAD SWAP2 POP PUSH1 0x1F NOT PUSH1 0x3F RETURNDATASIZE ADD AND DUP3 ADD PUSH1 0x40 MSTORE RETURNDATASIZE DUP3 MSTORE RETURNDATASIZE PUSH1 0x0 PUSH1 0x20 DUP5 ADD RETURNDATACOPY PUSH2 0x6BC JUMP JUMPDEST PUSH1 0x60 SWAP2 POP JUMPDEST POP POP PUSH1 0x2 DUP1 SLOAD PUSH1 0xFF NOT AND SWAP1 SSTORE SWAP1 POP PUSH1 0x0 PUSH1 0x1 PUSH1 0x1 PUSH1 0x60 SHL SUB PUSH32 0x0 AND GAS PUSH2 0x701 SWAP1 DUP9 PUSH2 0x18D5 JUMP JUMPDEST PUSH2 0x70B SWAP2 SWAP1 PUSH2 0x18E8 JUMP JUMPDEST PUSH2 0x73E SWAP1 PUSH1 0x1 PUSH1 0x1 PUSH1 0x60 SHL SUB PUSH32 0x0 AND PUSH2 0x18FF JUMP JUMPDEST DUP6 MLOAD PUSH1 0x1 PUSH1 0x1 PUSH1 0x40 SHL SUB AND PUSH1 0x0 SWAP1 DUP2 MSTORE PUSH1 0x6 PUSH1 0x20 MSTORE PUSH1 0x40 SWAP1 KECCAK256 SLOAD SWAP1 SWAP2 POP PUSH1 0x1 PUSH1 0x1 PUSH1 0x60 SHL SUB DUP1 DUP4 AND PUSH1 0x1 PUSH1 0xA0 SHL SWAP1 SWAP3 DIV AND LT ISZERO PUSH2 0x78E JUMPI PUSH1 0x40 MLOAD PUSH4 0x1E9ACF17 PUSH1 0xE3 SHL DUP2 MSTORE PUSH1 0x4 ADD PUSH1 0x40 MLOAD DUP1 SWAP2 SUB SWAP1 REVERT JUMPDEST DUP5 MLOAD PUSH1 0x1 PUSH1 0x1 PUSH1 0x40 SHL SUB AND PUSH1 0x0 SWAP1 DUP2 MSTORE PUSH1 0x6 PUSH1 0x20 MSTORE PUSH1 0x40 SWAP1 KECCAK256 DUP1 SLOAD DUP3 SWAP2 SWAP1 PUSH1 0x14 SWAP1 PUSH2 0x7CA SWAP1 DUP5 SWAP1 PUSH1 0x1 PUSH1 0xA0 SHL SWAP1 DIV PUSH1 0x1 PUSH1 0x1 PUSH1 0x60 SHL SUB AND PUSH2 0x1912 JUMP JUMPDEST DUP3 SLOAD PUSH2 0x100 SWAP3 SWAP1 SWAP3 EXP PUSH1 0x1 PUSH1 0x1 PUSH1 0x60 SHL SUB DUP2 DUP2 MUL NOT SWAP1 SWAP4 AND SWAP2 DUP4 AND MUL OR SWAP1 SWAP2 SSTORE PUSH1 0x0 DUP12 DUP2 MSTORE PUSH1 0x8 PUSH1 0x20 SWAP1 DUP2 MSTORE PUSH1 0x40 SWAP2 DUP3 SWAP1 KECCAK256 DUP1 SLOAD PUSH16 0xFFFFFFFFFFFFFFFFFFFFFFFFFFFFFFFF NOT AND SWAP1 SSTORE DUP2 MLOAD DUP14 DUP2 MSTORE SWAP3 DUP6 AND SWAP1 DUP4 ADD MSTORE DUP5 ISZERO ISZERO SWAP1 DUP3 ADD MSTORE DUP11 SWAP2 POP PUSH32 0x7DFFC5AE5EE4E2E4DF1651CF6AD329A73CEBDB728F37EA0187B9B17E036756E4 SWAP1 PUSH1 0x60 ADD PUSH1 0x40 MLOAD DUP1 SWAP2 SUB SWAP1 LOG2 POP POP POP POP POP POP POP POP POP JUMP JUMPDEST PUSH1 0x2 SLOAD PUSH1 0x0 SWAP1 PUSH1 0xFF AND ISZERO PUSH2 0x888 JUMPI PUSH1 0x40 MLOAD PUSH4 0x769DD353 PUSH1 0xE1 SHL DUP2 MSTORE PUSH1 0x4 ADD PUSH1 0x40 MLOAD DUP1 SWAP2 SUB SWAP1 REVERT JUMPDEST DUP5 CALLER PUSH2 0x894 DUP3 DUP3 PUSH2 0x12EC JUMP JUMPDEST PUSH2 0x8B1 JUMPI PUSH1 0x40 MLOAD PUSH4 0x71E83137 PUSH1 0xE0 SHL DUP2 MSTORE PUSH1 0x4 ADD PUSH1 0x40 MLOAD DUP1 SWAP2 SUB SWAP1 REVERT JUMPDEST PUSH1 0x1 PUSH1 0x1 PUSH1 0x40 SHL SUB DUP8 AND PUSH1 0x0 SWAP1 DUP2 MSTORE PUSH1 0x6 PUSH1 0x20 MSTORE PUSH1 0x40 SWAP1 KECCAK256 SLOAD PUSH1 0x1 PUSH1 0x1 PUSH1 0xA0 SHL SUB AND PUSH2 0x8F0 JUMPI PUSH1 0x40 MLOAD PUSH4 0xFB532DB PUSH1 0xE1 SHL DUP2 MSTORE PUSH1 0x4 ADD PUSH1 0x40 MLOAD DUP1 SWAP2 SUB SWAP1 REVERT JUMPDEST PUSH1 0x4 DUP1 SLOAD PUSH1 0x0 SWAP2 DUP3 PUSH2 0x901 DUP4 PUSH2 0x1931 JUMP JUMPDEST SWAP1 SWAP2 SSTORE POP PUSH1 0x5 DUP1 SLOAD SWAP2 SWAP3 POP PUSH1 0x0 SWAP2 SWAP1 DUP3 PUSH2 0x91A DUP4 PUSH2 0x1931 JUMP JUMPDEST SWAP1 SWAP2 SSTORE POP PUSH1 0x40 DUP1 MLOAD PUSH1 0x60 DUP1 DUP3 ADD DUP4 MSTORE PUSH1 0x1 PUSH1 0x1 PUSH1 0x40 SHL SUB DUP14 DUP2 AND DUP1 DUP5 MSTORE PUSH4 0xFFFFFFFF DUP14 DUP2 AND PUSH1 0x20 DUP1 DUP8 ADD DUP3 DUP2 MSTORE DUP16 DUP5 AND DUP9 DUP11 ADD DUP2 DUP2 MSTORE PUSH1 0x0 DUP15 DUP2 MSTORE PUSH1 0x8 DUP6 MSTORE DUP12 SWAP1 KECCAK256 SWAP10 MLOAD DUP11 SLOAD SWAP4 MLOAD SWAP2 MLOAD DUP8 AND PUSH1 0x1 PUSH1 0x60 SHL MUL PUSH4 0xFFFFFFFF PUSH1 0x60 SHL NOT SWAP3 SWAP1 SWAP8 AND PUSH1 0x1 PUSH1 0x40 SHL MUL PUSH12 0xFFFFFFFFFFFFFFFFFFFFFFFF NOT SWAP1 SWAP5 AND SWAP9 AND SWAP8 SWAP1 SWAP8 OR SWAP2 SWAP1 SWAP2 OR SWAP6 SWAP1 SWAP6 AND SWAP3 SWAP1 SWAP3 OR SWAP1 SWAP6 SSTORE DUP6 MLOAD DUP10 DUP2 MSTORE SWAP1 DUP2 ADD DUP8 SWAP1 MSTORE PUSH2 0xFFFF DUP16 AND DUP2 DUP8 ADD MSTORE SWAP3 DUP4 ADD SWAP4 SWAP1 SWAP4 MSTORE PUSH1 0x80 DUP3 ADD MSTORE SWAP2 MLOAD SWAP3 SWAP4 POP CALLER SWAP3 SWAP1 SWAP2 DUP14 SWAP2 PUSH32 0x63373D1C4696214B898952999C9AAEC57DAC1EE2723CEC59BEA6888F489A9772 SWAP2 PUSH1 0xA0 SWAP1 DUP3 SWAP1 SUB ADD SWAP1 LOG4 POP SWAP9 SWAP8 POP POP POP POP POP POP POP POP JUMP JUMPDEST PUSH1 0x1 PUSH1 0x1 PUSH1 0x40 SHL SUB DUP3 AND PUSH1 0x0 SWAP1 DUP2 MSTORE PUSH1 0x6 PUSH1 0x20 MSTORE PUSH1 0x40 SWAP1 KECCAK256 SLOAD DUP3 SWAP1 PUSH1 0x1 PUSH1 0x1 PUSH1 0xA0 SHL SUB AND DUP1 PUSH2 0xA4A JUMPI PUSH1 0x40 MLOAD PUSH4 0xFB532DB PUSH1 0xE1 SHL DUP2 MSTORE PUSH1 0x4 ADD PUSH1 0x40 MLOAD DUP1 SWAP2 SUB SWAP1 REVERT JUMPDEST CALLER PUSH1 0x1 PUSH1 0x1 PUSH1 0xA0 SHL SUB DUP3 AND EQ PUSH2 0xA7E JUMPI PUSH1 0x40 MLOAD PUSH4 0x6C51FDA9 PUSH1 0xE1 SHL DUP2 MSTORE PUSH1 0x1 PUSH1 0x1 PUSH1 0xA0 SHL SUB DUP3 AND PUSH1 0x4 DUP3 ADD MSTORE PUSH1 0x24 ADD PUSH2 0x44A JUMP JUMPDEST PUSH1 0x1 PUSH1 0x1 PUSH1 0x40 SHL SUB DUP5 AND PUSH1 0x0 SWAP1 DUP2 MSTORE PUSH1 0x7 PUSH1 0x20 MSTORE PUSH1 0x40 SWAP1 KECCAK256 SLOAD PUSH2 0xFFFF PUSH32 0x0 AND SWAP1 SUB PUSH2 0xADB JUMPI PUSH1 0x40 MLOAD PUSH4 0x5A48E0F PUSH1 0xE0 SHL DUP2 MSTORE PUSH1 0x4 ADD PUSH1 0x40 MLOAD DUP1 SWAP2 SUB SWAP1 REVERT JUMPDEST PUSH2 0xAE5 DUP5 DUP5 PUSH2 0x12EC JUMP JUMPDEST PUSH2 0xB63 JUMPI PUSH1 0x1 PUSH1 0x1 PUSH1 0x40 SHL SUB DUP5 AND PUSH1 0x0 DUP2 DUP2 MSTORE PUSH1 0x7 PUSH1 0x20 SWAP1 DUP2 MSTORE PUSH1 0x40 DUP1 DUP4 KECCAK256 DUP1 SLOAD PUSH1 0x1 DUP2 ADD DUP3 SSTORE SWAP1 DUP5 MSTORE SWAP3 DUP3 SWAP1 KECCAK256 SWAP1 SWAP3 ADD DUP1 SLOAD PUSH1 0x1 PUSH1 0x1 PUSH1 0xA0 SHL SUB NOT AND PUSH1 0x1 PUSH1 0x1 PUSH1 0xA0 SHL SUB DUP9 AND SWAP1 DUP2 OR SWAP1 SWAP2 SSTORE SWAP2 MLOAD SWAP2 DUP3 MSTORE PUSH32 0x752EAD9F4536EC1319EE3A5A604E1D65EDED22E0924251552BA14AE4FAA1BBC3 SWAP2 ADD PUSH1 0x40 MLOAD DUP1 SWAP2 SUB SWAP1 LOG2 JUMPDEST POP POP POP POP JUMP JUMPDEST PUSH1 0x1 SLOAD PUSH1 0x1 PUSH1 0x1 PUSH1 0xA0 SHL SUB AND CALLER EQ PUSH2 0xBBC JUMPI PUSH1 0x40 MLOAD PUSH3 0x461BCD PUSH1 0xE5 SHL DUP2 MSTORE PUSH1 0x20 PUSH1 0x4 DUP3 ADD MSTORE PUSH1 0x16 PUSH1 0x24 DUP3 ADD MSTORE PUSH22 0x26BAB9BA10313290383937B837B9B2B21037BBB732B9 PUSH1 0x51 SHL PUSH1 0x44 DUP3 ADD MSTORE PUSH1 0x64 ADD PUSH2 0x44A JUMP JUMPDEST PUSH1 0x0 DUP1 SLOAD CALLER PUSH1 0x1 PUSH1 0x1 PUSH1 0xA0 SHL SUB NOT DUP1 DUP4 AND DUP3 OR DUP5 SSTORE PUSH1 0x1 DUP1 SLOAD SWAP1 SWAP2 AND SWAP1 SSTORE PUSH1 0x40 MLOAD PUSH1 0x1 PUSH1 0x1 PUSH1 0xA0 SHL SUB SWAP1 SWAP3 AND SWAP3 SWAP1 SWAP2 DUP4 SWAP2 PUSH32 0x8BE0079C531659141344CD1FD0A4F28419497F9722A3DAAFE3B4186F6B6457E0 SWAP2 LOG3 POP JUMP JUMPDEST PUSH1 0x2 SLOAD PUSH1 0xFF AND ISZERO PUSH2 0xC37 JUMPI PUSH1 0x40 MLOAD PUSH4 0x769DD353 PUSH1 0xE1 SHL DUP2 MSTORE PUSH1 0x4 ADD PUSH1 0x40 MLOAD DUP1 SWAP2 SUB SWAP1 REVERT JUMPDEST PUSH1 0x40 DUP1 MLOAD PUSH1 0x0 DUP2 MSTORE PUSH1 0x20 DUP2 ADD SWAP1 SWAP2 MSTORE PUSH2 0xC53 SWAP1 DUP4 SWAP1 DUP4 SWAP1 PUSH2 0x453 JUMP JUMPDEST POP POP JUMP JUMPDEST PUSH2 0xC5F PUSH2 0x13CC JUMP JUMPDEST PUSH1 0x40 DUP1 MLOAD PUSH1 0x20 DUP2 ADD DUP3 MSTORE PUSH1 0x0 SWAP1 DUP2 SWAP1 MSTORE PUSH1 0x2 DUP1 SLOAD PUSH1 0xFF NOT AND SWAP1 SSTORE SWAP1 MLOAD PUSH32 0x4B2974A542484CBA2783812FF8033F7FC682CAC2FE0905C28C5E27869B3155BE SWAP2 SWAP1 LOG1 JUMP JUMPDEST PUSH1 0x1 PUSH1 0x1 PUSH1 0x40 SHL SUB DUP3 AND PUSH1 0x0 SWAP1 DUP2 MSTORE PUSH1 0x6 PUSH1 0x20 MSTORE PUSH1 0x40 SWAP1 KECCAK256 SLOAD DUP3 SWAP1 PUSH1 0x1 PUSH1 0x1 PUSH1 0xA0 SHL SUB AND DUP1 PUSH2 0xCE3 JUMPI PUSH1 0x40 MLOAD PUSH4 0xFB532DB PUSH1 0xE1 SHL DUP2 MSTORE PUSH1 0x4 ADD PUSH1 0x40 MLOAD DUP1 SWAP2 SUB SWAP1 REVERT JUMPDEST CALLER PUSH1 0x1 PUSH1 0x1 PUSH1 0xA0 SHL SUB DUP3 AND EQ PUSH2 0xD17 JUMPI PUSH1 0x40 MLOAD PUSH4 0x6C51FDA9 PUSH1 0xE1 SHL DUP2 MSTORE PUSH1 0x1 PUSH1 0x1 PUSH1 0xA0 SHL SUB DUP3 AND PUSH1 0x4 DUP3 ADD MSTORE PUSH1 0x24 ADD PUSH2 0x44A JUMP JUMPDEST DUP4 DUP4 PUSH2 0xD23 DUP3 DUP3 PUSH2 0x12EC JUMP JUMPDEST PUSH2 0xD40 JUMPI PUSH1 0x40 MLOAD PUSH4 0x71E83137 PUSH1 0xE0 SHL DUP2 MSTORE PUSH1 0x4 ADD PUSH1 0x40 MLOAD DUP1 SWAP2 SUB SWAP1 REVERT JUMPDEST PUSH1 0x2 SLOAD PUSH1 0xFF AND ISZERO PUSH2 0xD64 JUMPI PUSH1 0x40 MLOAD PUSH4 0x769DD353 PUSH1 0xE1 SHL DUP2 MSTORE PUSH1 0x4 ADD PUSH1 0x40 MLOAD DUP1 SWAP2 SUB SWAP1 REVERT JUMPDEST PUSH1 0x1 PUSH1 0x1 PUSH1 0x40 SHL SUB DUP7 AND PUSH1 0x0 SWAP1 DUP2 MSTORE PUSH1 0x7 PUSH1 0x20 MSTORE PUSH1 0x40 DUP2 KECCAK256 SWAP1 JUMPDEST DUP2 SLOAD DUP2 LT ISZERO PUSH2 0xE81 JUMPI DUP7 PUSH1 0x1 PUSH1 0x1 PUSH1 0xA0 SHL SUB AND DUP3 DUP3 DUP2 SLOAD DUP2 LT PUSH2 0xDA3 JUMPI PUSH2 0xDA3 PUSH2 0x182B JUMP JUMPDEST PUSH1 0x0 SWAP2 DUP3 MSTORE PUSH1 0x20 SWAP1 SWAP2 KECCAK256 ADD SLOAD PUSH1 0x1 PUSH1 0x1 PUSH1 0xA0 SHL SUB AND SUB PUSH2 0xE79 JUMPI DUP2 SLOAD PUSH1 0x0 SWAP1 DUP4 SWAP1 PUSH2 0xDD0 SWAP1 PUSH1 0x1 SWAP1 PUSH2 0x18D5 JUMP JUMPDEST DUP2 SLOAD DUP2 LT PUSH2 0xDE0 JUMPI PUSH2 0xDE0 PUSH2 0x182B JUMP JUMPDEST SWAP1 PUSH1 0x0 MSTORE PUSH1 0x20 PUSH1 0x0 KECCAK256 ADD PUSH1 0x0 SWAP1 SLOAD SWAP1 PUSH2 0x100 EXP SWAP1 DIV PUSH1 0x1 PUSH1 0x1 PUSH1 0xA0 SHL SUB AND SWAP1 POP DUP1 DUP4 DUP4 DUP2 SLOAD DUP2 LT PUSH2 0xE13 JUMPI PUSH2 0xE13 PUSH2 0x182B JUMP JUMPDEST SWAP1 PUSH1 0x0 MSTORE PUSH1 0x20 PUSH1 0x0 KECCAK256 ADD PUSH1 0x0 PUSH2 0x100 EXP DUP2 SLOAD DUP2 PUSH1 0x1 PUSH1 0x1 PUSH1 0xA0 SHL SUB MUL NOT AND SWAP1 DUP4 PUSH1 0x1 PUSH1 0x1 PUSH1 0xA0 SHL SUB AND MUL OR SWAP1 SSTORE POP DUP3 DUP1 SLOAD DUP1 PUSH2 0xE51 JUMPI PUSH2 0xE51 PUSH2 0x194A JUMP JUMPDEST PUSH1 0x0 DUP3 DUP2 MSTORE PUSH1 0x20 SWAP1 KECCAK256 DUP2 ADD PUSH1 0x0 NOT SWAP1 DUP2 ADD DUP1 SLOAD PUSH1 0x1 PUSH1 0x1 PUSH1 0xA0 SHL SUB NOT AND SWAP1 SSTORE ADD SWAP1 SSTORE POP PUSH2 0xE81 JUMP JUMPDEST PUSH1 0x1 ADD PUSH2 0xD7E JUMP JUMPDEST POP PUSH1 0x40 MLOAD PUSH1 0x1 PUSH1 0x1 PUSH1 0xA0 SHL SUB DUP8 AND DUP2 MSTORE PUSH1 0x1 PUSH1 0x1 PUSH1 0x40 SHL SUB DUP9 AND SWAP1 PUSH32 0xF9BC9D5B5733D904409DEF43A5ECC888DBDAC9A95687780D8FD489D3BB3813FC SWAP1 PUSH1 0x20 ADD PUSH1 0x40 MLOAD DUP1 SWAP2 SUB SWAP1 LOG2 POP POP POP POP POP POP POP JUMP JUMPDEST PUSH1 0x3 DUP1 SLOAD PUSH1 0x0 SWAP2 PUSH1 0x1 PUSH1 0x1 PUSH1 0x40 SHL SUB SWAP1 SWAP2 AND SWAP1 DUP3 PUSH2 0xEEF DUP4 PUSH2 0x1960 JUMP JUMPDEST DUP3 SLOAD PUSH1 0x1 PUSH1 0x1 PUSH1 0x40 SHL SUB SWAP2 DUP3 AND PUSH2 0x100 SWAP4 SWAP1 SWAP4 EXP SWAP3 DUP4 MUL SWAP3 DUP3 MUL NOT AND SWAP2 SWAP1 SWAP2 OR SWAP1 SWAP2 SSTORE PUSH1 0x40 DUP1 MLOAD DUP1 DUP3 ADD DUP3 MSTORE CALLER DUP1 DUP3 MSTORE PUSH1 0x0 PUSH1 0x20 DUP1 DUP5 ADD DUP3 DUP2 MSTORE PUSH1 0x3 DUP1 SLOAD DUP9 AND DUP5 MSTORE PUSH1 0x6 DUP4 MSTORE SWAP3 DUP7 SWAP1 KECCAK256 SWAP5 MLOAD SWAP1 MLOAD PUSH1 0x1 PUSH1 0x1 PUSH1 0x60 SHL SUB AND PUSH1 0x1 PUSH1 0xA0 SHL MUL PUSH1 0x1 PUSH1 0x1 PUSH1 0xA0 SHL SUB SWAP1 SWAP2 AND OR SWAP1 SWAP4 SSTORE SLOAD SWAP3 MLOAD SWAP1 DUP2 MSTORE SWAP2 SWAP1 SWAP3 AND SWAP3 POP PUSH32 0x464722B4166576D3DCBBA877B999BC35CF911F4EAF434B7EBA68FA113951D0BF SWAP2 ADD PUSH1 0x40 MLOAD DUP1 SWAP2 SUB SWAP1 LOG2 POP PUSH1 0x3 SLOAD PUSH1 0x1 PUSH1 0x1 PUSH1 0x40 SHL SUB AND SWAP1 JUMP JUMPDEST PUSH1 0x1 PUSH1 0x1 PUSH1 0x40 SHL SUB DUP2 AND PUSH1 0x0 SWAP1 DUP2 MSTORE PUSH1 0x6 PUSH1 0x20 MSTORE PUSH1 0x40 DUP2 KECCAK256 SLOAD DUP2 SWAP1 DUP2 SWAP1 PUSH1 0x60 SWAP1 PUSH1 0x1 PUSH1 0x1 PUSH1 0xA0 SHL SUB AND PUSH2 0xFE8 JUMPI PUSH1 0x40 MLOAD PUSH4 0xFB532DB PUSH1 0xE1 SHL DUP2 MSTORE PUSH1 0x4 ADD PUSH1 0x40 MLOAD DUP1 SWAP2 SUB SWAP1 REVERT JUMPDEST PUSH1 0x1 PUSH1 0x1 PUSH1 0x40 SHL SUB DUP6 AND PUSH1 0x0 SWAP1 DUP2 MSTORE PUSH1 0x6 PUSH1 0x20 SWAP1 DUP2 MSTORE PUSH1 0x40 DUP1 DUP4 KECCAK256 SLOAD PUSH1 0x7 DUP4 MSTORE DUP2 DUP5 KECCAK256 DUP1 SLOAD DUP4 MLOAD DUP2 DUP7 MUL DUP2 ADD DUP7 ADD SWAP1 SWAP5 MSTORE DUP1 DUP5 MSTORE PUSH1 0x1 PUSH1 0x1 PUSH1 0x60 SHL SUB PUSH1 0x1 PUSH1 0xA0 SHL DUP5 DIV AND SWAP6 SWAP5 PUSH1 0x1 PUSH1 0x1 PUSH1 0xA0 SHL SUB SWAP1 SWAP4 AND SWAP4 SWAP2 SWAP3 DUP4 SWAP2 SWAP1 DUP4 ADD DUP3 DUP3 DUP1 ISZERO PUSH2 0x1078 JUMPI PUSH1 0x20 MUL DUP3 ADD SWAP2 SWAP1 PUSH1 0x0 MSTORE PUSH1 0x20 PUSH1 0x0 KECCAK256 SWAP1 JUMPDEST DUP2 SLOAD PUSH1 0x1 PUSH1 0x1 PUSH1 0xA0 SHL SUB AND DUP2 MSTORE PUSH1 0x1 SWAP1 SWAP2 ADD SWAP1 PUSH1 0x20 ADD DUP1 DUP4 GT PUSH2 0x105A JUMPI JUMPDEST POP POP POP POP POP SWAP1 POP SWAP4 POP SWAP4 POP SWAP4 POP SWAP4 POP SWAP2 SWAP4 POP SWAP2 SWAP4 JUMP JUMPDEST PUSH1 0x1 PUSH1 0x1 PUSH1 0x40 SHL SUB DUP3 AND PUSH1 0x0 SWAP1 DUP2 MSTORE PUSH1 0x6 PUSH1 0x20 MSTORE PUSH1 0x40 SWAP1 KECCAK256 SLOAD PUSH1 0x1 PUSH1 0x1 PUSH1 0xA0 SHL SUB AND PUSH2 0x10CD JUMPI PUSH1 0x40 MLOAD PUSH4 0xFB532DB PUSH1 0xE1 SHL DUP2 MSTORE PUSH1 0x4 ADD PUSH1 0x40 MLOAD DUP1 SWAP2 SUB SWAP1 REVERT JUMPDEST PUSH1 0x1 PUSH1 0x1 PUSH1 0x40 SHL SUB DUP3 AND PUSH1 0x0 SWAP1 DUP2 MSTORE PUSH1 0x6 PUSH1 0x20 MSTORE PUSH1 0x40 SWAP1 KECCAK256 DUP1 SLOAD PUSH1 0x1 PUSH1 0xA0 SHL SWAP1 DIV PUSH1 0x1 PUSH1 0x1 PUSH1 0x60 SHL SUB AND SWAP1 DUP3 SWAP1 PUSH1 0x14 PUSH2 0x1106 DUP4 DUP6 PUSH2 0x198B JUMP JUMPDEST SWAP3 POP PUSH2 0x100 EXP DUP2 SLOAD DUP2 PUSH1 0x1 PUSH1 0x1 PUSH1 0x60 SHL SUB MUL NOT AND SWAP1 DUP4 PUSH1 0x1 PUSH1 0x1 PUSH1 0x60 SHL SUB AND MUL OR SWAP1 SSTORE POP DUP3 PUSH1 0x1 PUSH1 0x1 PUSH1 0x40 SHL SUB AND PUSH32 0xD39EC07F4E209F627A4C427971473820DC129761BA28DE8906BD56F57101D4F8 DUP3 DUP5 DUP5 PUSH2 0x1162 SWAP2 SWAP1 PUSH2 0x198B JUMP JUMPDEST PUSH1 0x40 DUP1 MLOAD PUSH1 0x1 PUSH1 0x1 PUSH1 0x60 SHL SUB SWAP4 DUP5 AND DUP2 MSTORE SWAP3 SWAP1 SWAP2 AND PUSH1 0x20 DUP4 ADD MSTORE ADD PUSH1 0x40 MLOAD DUP1 SWAP2 SUB SWAP1 LOG2 POP POP POP JUMP JUMPDEST PUSH1 0x1 PUSH1 0x1 PUSH1 0x40 SHL SUB DUP3 AND PUSH1 0x0 SWAP1 DUP2 MSTORE PUSH1 0x6 PUSH1 0x20 MSTORE PUSH1 0x40 SWAP1 KECCAK256 SLOAD DUP3 SWAP1 PUSH1 0x1 PUSH1 0x1 PUSH1 0xA0 SHL SUB AND DUP1 PUSH2 0x11CC JUMPI PUSH1 0x40 MLOAD PUSH4 0xFB532DB PUSH1 0xE1 SHL DUP2 MSTORE PUSH1 0x4 ADD PUSH1 0x40 MLOAD DUP1 SWAP2 SUB SWAP1 REVERT JUMPDEST CALLER PUSH1 0x1 PUSH1 0x1 PUSH1 0xA0 SHL SUB DUP3 AND EQ PUSH2 0x1200 JUMPI PUSH1 0x40 MLOAD PUSH4 0x6C51FDA9 PUSH1 0xE1 SHL DUP2 MSTORE PUSH1 0x1 PUSH1 0x1 PUSH1 0xA0 SHL SUB DUP3 AND PUSH1 0x4 DUP3 ADD MSTORE PUSH1 0x24 ADD PUSH2 0x44A JUMP JUMPDEST PUSH1 0x2 SLOAD PUSH1 0xFF AND ISZERO PUSH2 0x1224 JUMPI PUSH1 0x40 MLOAD PUSH4 0x769DD353 PUSH1 0xE1 SHL DUP2 MSTORE PUSH1 0x4 ADD PUSH1 0x40 MLOAD DUP1 SWAP2 SUB SWAP1 REVERT JUMPDEST PUSH1 0x1 PUSH1 0x1 PUSH1 0x40 SHL SUB DUP5 AND PUSH1 0x0 DUP2 DUP2 MSTORE PUSH1 0x6 PUSH1 0x20 SWAP1 DUP2 MSTORE PUSH1 0x40 SWAP2 DUP3 SWAP1 KECCAK256 SLOAD DUP3 MLOAD PUSH1 0x1 PUSH1 0x1 PUSH1 0xA0 SHL SUB DUP9 AND DUP2 MSTORE PUSH1 0x1 PUSH1 0xA0 SHL SWAP1 SWAP2 DIV PUSH1 0x1 PUSH1 0x1 PUSH1 0x60 SHL SUB AND SWAP2 DUP2 ADD SWAP2 SWAP1 SWAP2 MSTORE PUSH32 0xE8ED5B475A5B5987AA9165E8731BB78043F39EEE32EC5A1169A89E27FCD49815 SWAP2 ADD PUSH1 0x40 MLOAD DUP1 SWAP2 SUB SWAP1 LOG2 POP POP POP PUSH1 0x1 PUSH1 0x1 PUSH1 0x40 SHL SUB AND PUSH1 0x0 SWAP1 DUP2 MSTORE PUSH1 0x6 PUSH1 0x20 MSTORE PUSH1 0x40 DUP2 KECCAK256 SSTORE JUMP JUMPDEST PUSH1 0x40 MLOAD PUSH3 0x461BCD PUSH1 0xE5 SHL DUP2 MSTORE PUSH1 0x20 PUSH1 0x4 DUP3 ADD MSTORE PUSH1 0xF PUSH1 0x24 DUP3 ADD MSTORE PUSH15 0x1B9BDD081A5B5C1B195B595B9D1959 PUSH1 0x8A SHL PUSH1 0x44 DUP3 ADD MSTORE PUSH1 0x0 SWAP1 PUSH1 0x64 ADD PUSH2 0x44A JUMP JUMPDEST PUSH1 0x1 PUSH1 0x1 PUSH1 0x40 SHL SUB DUP3 AND PUSH1 0x0 SWAP1 DUP2 MSTORE PUSH1 0x7 PUSH1 0x20 SWAP1 DUP2 MSTORE PUSH1 0x40 DUP1 DUP4 KECCAK256 DUP1 SLOAD DUP3 MLOAD DUP2 DUP6 MUL DUP2 ADD DUP6 ADD SWAP1 SWAP4 MSTORE DUP1 DUP4 MSTORE DUP5 SWAP4 DUP4 ADD DUP3 DUP3 DUP1 ISZERO PUSH2 0x1353 JUMPI PUSH1 0x20 MUL DUP3 ADD SWAP2 SWAP1 PUSH1 0x0 MSTORE PUSH1 0x20 PUSH1 0x0 KECCAK256 SWAP1 JUMPDEST DUP2 SLOAD PUSH1 0x1 PUSH1 0x1 PUSH1 0xA0 SHL SUB AND DUP2 MSTORE PUSH1 0x1 SWAP1 SWAP2 ADD SWAP1 PUSH1 0x20 ADD DUP1 DUP4 GT PUSH2 0x1335 JUMPI JUMPDEST POP POP POP POP POP SWAP1 POP PUSH1 0x0 JUMPDEST DUP2 MLOAD DUP2 LT ISZERO PUSH2 0x13AB JUMPI DUP4 PUSH1 0x1 PUSH1 0x1 PUSH1 0xA0 SHL SUB AND DUP3 DUP3 DUP2 MLOAD DUP2 LT PUSH2 0x1382 JUMPI PUSH2 0x1382 PUSH2 0x182B JUMP JUMPDEST PUSH1 0x20 MUL PUSH1 0x20 ADD ADD MLOAD PUSH1 0x1 PUSH1 0x1 PUSH1 0xA0 SHL SUB AND SUB PUSH2 0x13A3 JUMPI PUSH1 0x1 SWAP3 POP POP POP PUSH2 0x13B2 JUMP JUMPDEST PUSH1 0x1 ADD PUSH2 0x135D JUMP JUMPDEST POP PUSH1 0x0 SWAP2 POP POP JUMPDEST SWAP3 SWAP2 POP POP JUMP JUMPDEST PUSH2 0x13C0 PUSH2 0x13CC JUMP JUMPDEST PUSH2 0x13C9 DUP2 PUSH2 0x1421 JUMP JUMPDEST POP JUMP JUMPDEST PUSH1 0x0 SLOAD PUSH1 0x1 PUSH1 0x1 PUSH1 0xA0 SHL SUB AND CALLER EQ PUSH2 0x141F JUMPI PUSH1 0x40 MLOAD PUSH3 0x461BCD PUSH1 0xE5 SHL DUP2 MSTORE PUSH1 0x20 PUSH1 0x4 DUP3 ADD MSTORE PUSH1 0x16 PUSH1 0x24 DUP3 ADD MSTORE PUSH22 0x27B7363C9031B0B63630B1363290313C9037BBB732B9 PUSH1 0x51 SHL PUSH1 0x44 DUP3 ADD MSTORE PUSH1 0x64 ADD PUSH2 0x44A JUMP JUMPDEST JUMP JUMPDEST CALLER PUSH1 0x1 PUSH1 0x1 PUSH1 0xA0 SHL SUB DUP3 AND SUB PUSH2 0x1479 JUMPI PUSH1 0x40 MLOAD PUSH3 0x461BCD PUSH1 0xE5 SHL DUP2 MSTORE PUSH1 0x20 PUSH1 0x4 DUP3 ADD MSTORE PUSH1 0x17 PUSH1 0x24 DUP3 ADD MSTORE PUSH32 0x43616E6E6F74207472616E7366657220746F2073656C66000000000000000000 PUSH1 0x44 DUP3 ADD MSTORE PUSH1 0x64 ADD PUSH2 0x44A JUMP JUMPDEST PUSH1 0x1 DUP1 SLOAD PUSH1 0x1 PUSH1 0x1 PUSH1 0xA0 SHL SUB NOT AND PUSH1 0x1 PUSH1 0x1 PUSH1 0xA0 SHL SUB DUP4 DUP2 AND SWAP2 DUP3 OR SWAP1 SWAP3 SSTORE PUSH1 0x0 DUP1 SLOAD PUSH1 0x40 MLOAD SWAP3 SWAP4 AND SWAP2 PUSH32 0xED8889F560326EB138920D842192F0EB3DD22B4F139C87A2C57538E05BAE1278 SWAP2 SWAP1 LOG3 POP JUMP JUMPDEST PUSH1 0x0 PUSH1 0x60 DUP3 ADD PUSH2 0xFFFF DUP7 AND DUP4 MSTORE PUSH4 0xFFFFFFFF DUP6 AND PUSH1 0x20 DUP5 ADD MSTORE PUSH1 0x60 PUSH1 0x40 DUP5 ADD MSTORE DUP1 DUP5 MLOAD DUP1 DUP4 MSTORE PUSH1 0x80 DUP6 ADD SWAP2 POP PUSH1 0x20 DUP7 ADD SWAP3 POP PUSH1 0x0 JUMPDEST DUP2 DUP2 LT ISZERO PUSH2 0x151D JUMPI DUP4 MLOAD DUP4 MSTORE PUSH1 0x20 SWAP4 DUP5 ADD SWAP4 SWAP1 SWAP3 ADD SWAP2 PUSH1 0x1 ADD PUSH2 0x14FF JUMP JUMPDEST POP SWAP1 SWAP8 SWAP7 POP POP POP POP POP POP POP JUMP JUMPDEST DUP1 CALLDATALOAD PUSH1 0x1 PUSH1 0x1 PUSH1 0x40 SHL SUB DUP2 AND DUP2 EQ PUSH2 0x1541 JUMPI PUSH1 0x0 DUP1 REVERT JUMPDEST SWAP2 SWAP1 POP JUMP JUMPDEST DUP1 CALLDATALOAD PUSH1 0x1 PUSH1 0x1 PUSH1 0xA0 SHL SUB DUP2 AND DUP2 EQ PUSH2 0x1541 JUMPI PUSH1 0x0 DUP1 REVERT JUMPDEST PUSH1 0x0 DUP1 PUSH1 0x40 DUP4 DUP6 SUB SLT ISZERO PUSH2 0x1570 JUMPI PUSH1 0x0 DUP1 REVERT JUMPDEST PUSH2 0x1579 DUP4 PUSH2 0x152A JUMP JUMPDEST SWAP2 POP PUSH2 0x1587 PUSH1 0x20 DUP5 ADD PUSH2 0x1546 JUMP JUMPDEST SWAP1 POP SWAP3 POP SWAP3 SWAP1 POP JUMP JUMPDEST PUSH4 0x4E487B71 PUSH1 0xE0 SHL PUSH1 0x0 MSTORE PUSH1 0x41 PUSH1 0x4 MSTORE PUSH1 0x24 PUSH1 0x0 REVERT JUMPDEST PUSH1 0x0 DUP1 PUSH1 0x0 PUSH1 0x60 DUP5 DUP7 SUB SLT ISZERO PUSH2 0x15BB JUMPI PUSH1 0x0 DUP1 REVERT JUMPDEST DUP4 CALLDATALOAD SWAP3 POP PUSH2 0x15CB PUSH1 0x20 DUP6 ADD PUSH2 0x1546 JUMP JUMPDEST SWAP2 POP PUSH1 0x40 DUP5 ADD CALLDATALOAD PUSH1 0x1 PUSH1 0x1 PUSH1 0x40 SHL SUB DUP2 GT ISZERO PUSH2 0x15E6 JUMPI PUSH1 0x0 DUP1 REVERT JUMPDEST DUP5 ADD PUSH1 0x1F DUP2 ADD DUP7 SGT PUSH2 0x15F7 JUMPI PUSH1 0x0 DUP1 REVERT JUMPDEST DUP1 CALLDATALOAD PUSH1 0x1 PUSH1 0x1 PUSH1 0x40 SHL SUB DUP2 GT ISZERO PUSH2 0x1610 JUMPI PUSH2 0x1610 PUSH2 0x1590 JUMP JUMPDEST DUP1 PUSH1 0x5 SHL PUSH1 0x40 MLOAD PUSH1 0x1F NOT PUSH1 0x3F DUP4 ADD AND DUP2 ADD DUP2 DUP2 LT PUSH1 0x1 PUSH1 0x1 PUSH1 0x40 SHL SUB DUP3 GT OR ISZERO PUSH2 0x163C JUMPI PUSH2 0x163C PUSH2 0x1590 JUMP JUMPDEST PUSH1 0x40 MSTORE SWAP2 DUP3 MSTORE PUSH1 0x20 DUP2 DUP5 ADD DUP2 ADD SWAP3 SWAP1 DUP2 ADD DUP10 DUP5 GT ISZERO PUSH2 0x165A JUMPI PUSH1 0x0 DUP1 REVERT JUMPDEST PUSH1 0x20 DUP6 ADD SWAP5 POP JUMPDEST DUP4 DUP6 LT ISZERO PUSH2 0x167D JUMPI DUP5 CALLDATALOAD DUP1 DUP3 MSTORE PUSH1 0x20 SWAP6 DUP7 ADD SWAP6 SWAP1 SWAP4 POP ADD PUSH2 0x1661 JUMP JUMPDEST POP DUP1 SWAP5 POP POP POP POP POP SWAP3 POP SWAP3 POP SWAP3 JUMP JUMPDEST DUP1 CALLDATALOAD PUSH4 0xFFFFFFFF DUP2 AND DUP2 EQ PUSH2 0x1541 JUMPI PUSH1 0x0 DUP1 REVERT JUMPDEST PUSH1 0x0 DUP1 PUSH1 0x0 DUP1 PUSH1 0x0 PUSH1 0xA0 DUP7 DUP9 SUB SLT ISZERO PUSH2 0x16B8 JUMPI PUSH1 0x0 DUP1 REVERT JUMPDEST DUP6 CALLDATALOAD SWAP5 POP PUSH2 0x16C8 PUSH1 0x20 DUP8 ADD PUSH2 0x152A JUMP JUMPDEST SWAP4 POP PUSH1 0x40 DUP7 ADD CALLDATALOAD PUSH2 0xFFFF DUP2 AND DUP2 EQ PUSH2 0x16DF JUMPI PUSH1 0x0 DUP1 REVERT JUMPDEST SWAP3 POP PUSH2 0x16ED PUSH1 0x60 DUP8 ADD PUSH2 0x168C JUMP JUMPDEST SWAP2 POP PUSH2 0x16FB PUSH1 0x80 DUP8 ADD PUSH2 0x168C JUMP JUMPDEST SWAP1 POP SWAP3 SWAP6 POP SWAP3 SWAP6 SWAP1 SWAP4 POP JUMP JUMPDEST PUSH1 0x0 DUP1 PUSH1 0x40 DUP4 DUP6 SUB SLT ISZERO PUSH2 0x171A JUMPI PUSH1 0x0 DUP1 REVERT JUMPDEST DUP3 CALLDATALOAD SWAP2 POP PUSH2 0x1587 PUSH1 0x20 DUP5 ADD PUSH2 0x1546 JUMP JUMPDEST PUSH1 0x0 PUSH1 0x20 DUP3 DUP5 SUB SLT ISZERO PUSH2 0x173C JUMPI PUSH1 0x0 DUP1 REVERT JUMPDEST PUSH2 0x1745 DUP3 PUSH2 0x152A JUMP JUMPDEST SWAP4 SWAP3 POP POP POP JUMP JUMPDEST PUSH1 0x1 PUSH1 0x1 PUSH1 0x60 SHL SUB DUP6 AND DUP2 MSTORE PUSH1 0x1 PUSH1 0x1 PUSH1 0x40 SHL SUB DUP5 AND PUSH1 0x20 DUP1 DUP4 ADD SWAP2 SWAP1 SWAP2 MSTORE PUSH1 0x1 PUSH1 0x1 PUSH1 0xA0 SHL SUB DUP5 AND PUSH1 0x40 DUP4 ADD MSTORE PUSH1 0x80 PUSH1 0x60 DUP4 ADD DUP2 SWAP1 MSTORE DUP4 MLOAD SWAP1 DUP4 ADD DUP2 SWAP1 MSTORE PUSH1 0x0 SWAP2 DUP5 ADD SWAP1 PUSH1 0xA0 DUP5 ADD SWAP1 DUP4 JUMPDEST DUP2 DUP2 LT ISZERO PUSH2 0x17BF JUMPI DUP4 MLOAD PUSH1 0x1 PUSH1 0x1 PUSH1 0xA0 SHL SUB AND DUP4 MSTORE PUSH1 0x20 SWAP4 DUP5 ADD SWAP4 SWAP1 SWAP3 ADD SWAP2 PUSH1 0x1 ADD PUSH2 0x1798 JUMP JUMPDEST POP SWAP1 SWAP9 SWAP8 POP POP POP POP POP POP POP POP JUMP JUMPDEST PUSH1 0x0 DUP1 PUSH1 0x40 DUP4 DUP6 SUB SLT ISZERO PUSH2 0x17E0 JUMPI PUSH1 0x0 DUP1 REVERT JUMPDEST PUSH2 0x17E9 DUP4 PUSH2 0x152A JUMP JUMPDEST SWAP2 POP PUSH1 0x20 DUP4 ADD CALLDATALOAD PUSH1 0x1 PUSH1 0x1 PUSH1 0x60 SHL SUB DUP2 AND DUP2 EQ PUSH2 0x1805 JUMPI PUSH1 0x0 DUP1 REVERT JUMPDEST DUP1 SWAP2 POP POP SWAP3 POP SWAP3 SWAP1 POP JUMP JUMPDEST PUSH1 0x0 PUSH1 0x20 DUP3 DUP5 SUB SLT ISZERO PUSH2 0x1822 JUMPI PUSH1 0x0 DUP1 REVERT JUMPDEST PUSH2 0x1745 DUP3 PUSH2 0x1546 JUMP JUMPDEST PUSH4 0x4E487B71 PUSH1 0xE0 SHL PUSH1 0x0 MSTORE PUSH1 0x32 PUSH1 0x4 MSTORE PUSH1 0x24 PUSH1 0x0 REVERT JUMPDEST PUSH1 0x0 PUSH1 0x40 DUP3 ADD DUP5 DUP4 MSTORE PUSH1 0x40 PUSH1 0x20 DUP5 ADD MSTORE DUP1 DUP5 MLOAD DUP1 DUP4 MSTORE PUSH1 0x60 DUP6 ADD SWAP2 POP PUSH1 0x20 DUP7 ADD SWAP3 POP PUSH1 0x0 JUMPDEST DUP2 DUP2 LT ISZERO PUSH2 0x1884 JUMPI DUP4 MLOAD DUP4 MSTORE PUSH1 0x20 SWAP4 DUP5 ADD SWAP4 SWAP1 SWAP3 ADD SWAP2 PUSH1 0x1 ADD PUSH2 0x1866 JUMP JUMPDEST POP SWAP1 SWAP7 SWAP6 POP POP POP POP POP POP JUMP JUMPDEST PUSH1 0x0 DUP3 MLOAD PUSH1 0x0 JUMPDEST DUP2 DUP2 LT ISZERO PUSH2 0x18B1 JUMPI PUSH1 0x20 DUP2 DUP7 ADD DUP2 ADD MLOAD DUP6 DUP4 ADD MSTORE ADD PUSH2 0x1897 JUMP JUMPDEST POP PUSH1 0x0 SWAP3 ADD SWAP2 DUP3 MSTORE POP SWAP2 SWAP1 POP JUMP JUMPDEST PUSH4 0x4E487B71 PUSH1 0xE0 SHL PUSH1 0x0 MSTORE PUSH1 0x11 PUSH1 0x4 MSTORE PUSH1 0x24 PUSH1 0x0 REVERT JUMPDEST DUP2 DUP2 SUB DUP2 DUP2 GT ISZERO PUSH2 0x13B2 JUMPI PUSH2 0x13B2 PUSH2 0x18BF JUMP JUMPDEST DUP1 DUP3 MUL DUP2 ISZERO DUP3 DUP3 DIV DUP5 EQ OR PUSH2 0x13B2 JUMPI PUSH2 0x13B2 PUSH2 0x18BF JUMP JUMPDEST DUP1 DUP3 ADD DUP1 DUP3 GT ISZERO PUSH2 0x13B2 JUMPI PUSH2 0x13B2 PUSH2 0x18BF JUMP JUMPDEST PUSH1 0x1 PUSH1 0x1 PUSH1 0x60 SHL SUB DUP3 DUP2 AND DUP3 DUP3 AND SUB SWAP1 DUP2 GT ISZERO PUSH2 0x13B2 JUMPI PUSH2 0x13B2 PUSH2 0x18BF JUMP JUMPDEST PUSH1 0x0 PUSH1 0x1 DUP3 ADD PUSH2 0x1943 JUMPI PUSH2 0x1943 PUSH2 0x18BF JUMP JUMPDEST POP PUSH1 0x1 ADD SWAP1 JUMP JUMPDEST PUSH4 0x4E487B71 PUSH1 0xE0 SHL PUSH1 0x0 MSTORE PUSH1 0x31 PUSH1 0x4 MSTORE PUSH1 0x24 PUSH1 0x0 REVERT JUMPDEST PUSH1 0x0 PUSH1 0x1 PUSH1 0x1 PUSH1 0x40 SHL SUB DUP3 AND PUSH1 0x1 PUSH1 0x1 PUSH1 0x40 SHL SUB DUP2 SUB PUSH2 0x1982 JUMPI PUSH2 0x1982 PUSH2 0x18BF JUMP JUMPDEST PUSH1 0x1 ADD SWAP3 SWAP2 POP POP JUMP JUMPDEST PUSH1 0x1 PUSH1 0x1 PUSH1 0x60 SHL SUB DUP2 DUP2 AND DUP4 DUP3 AND ADD SWAP1 DUP2 GT ISZERO PUSH2 0x13B2 JUMPI PUSH2 0x13B2 PUSH2 0x18BF JUMP INVALID LOG2 PUSH5 0x6970667358 0x22 SLT KECCAK256 SDIV SWAP12 PUSH15 0x410A37A0F7A2A4693B3BB0B634EF5F 0xC1 0xE2 PUSH5 0xF0A9926A92 SDIV SELFDESTRUCT 0x24 0x1F SSTORE 0xC4 PUSH5 0x736F6C6343 STOP ADDMOD BYTE STOP CALLER ",
  "sha1": "0e955f24910918cb6902618355a51c6fd4fabc05",
  "source": "// SPDX-License-Identifier: MIT\n// A mock for testing code that relies on VRFCoordinatorV2.\npragma solidity ^0.8.4;\n\nimport {VRFCoordinatorV2Interface} from \"@chainlink/contracts/src/v0.8/vrf/interfaces/VRFCoordinatorV2Interface.sol\";\nimport {VRFConsumerBaseV2} from \"@chainlink/contracts/src/v0.8/vrf/VRFConsumerBaseV2.sol\";\nimport {ConfirmedOwner} from \"@chainlink/contracts/src/v0.8/shared/access/ConfirmedOwner.sol\";\n\n// solhint-disable chainlink-solidity/prefix-immutable-variables-with-i\n// solhint-disable gas-custom-errors\n// solhint-disable avoid-low-level-calls\n\ncontract VRFCoordinatorV2Mock is VRFCoordinatorV2Interface, ConfirmedOwner {\n    uint96 public immutable BASE_FEE;\n    uint96 public immutable GAS_PRICE_LINK;\n    uint16 public immutable MAX_CONSUMERS = 100;\n\n    error InvalidSubscription();\n    error InsufficientBalance();\n    error MustBeSubOwner(address owner);\n    error TooManyConsumers();\n    error InvalidConsumer();\n    error InvalidRandomWords();\n    error Reentrant();\n\n    event RandomWordsRequested(\n        bytes32 indexed keyHash,\n        uint256 requestId,\n        uint256 preSeed,\n        uint64 indexed subId,\n        uint16 minimumRequestConfirmations,\n        uint32 callbackGasLimit,\n        uint32 numWords,\n        address indexed sender\n    );\n    event RandomWordsFulfilled(\n        uint256 indexed requestId,\n        uint256 outputSeed,\n        uint96 payment,\n        bool success\n    );\n    event SubscriptionCreated(uint64 indexed subId, address owner);\n    event SubscriptionFunded(\n        uint64 indexed subId,\n        uint256 oldBalance,\n        uint256 newBalance\n    );\n    event SubscriptionCanceled(\n        uint64 indexed subId,\n        address to,\n        uint256 amount\n    );\n    event ConsumerAdded(uint64 indexed subId, address consumer);\n    event ConsumerRemoved(uint64 indexed subId, address consumer);\n    event ConfigSet();\n\n    struct Config {\n        // Reentrancy protection.\n        bool reentrancyLock;\n    }\n    Config private s_config;\n    uint64 internal s_currentSubId;\n    uint256 internal s_nextRequestId = 1;\n    uint256 internal s_nextPreSeed = 100;\n    struct Subscription {\n        address owner;\n        uint96 balance;\n    }\n    mapping(uint64 => Subscription)\n        internal s_subscriptions; /* subId */ /* subscription */\n    mapping(uint64 => address[])\n        internal s_consumers; /* subId */ /* consumers */\n\n    struct Request {\n        uint64 subId;\n        uint32 callbackGasLimit;\n        uint32 numWords;\n    }\n    mapping(uint256 => Request)\n        internal s_requests; /* requestId */ /* request */\n\n    constructor(\n        uint96 _baseFee,\n        uint96 _gasPriceLink\n    ) ConfirmedOwner(msg.sender) {\n        BASE_FEE = _baseFee;\n        GAS_PRICE_LINK = _gasPriceLink;\n        setConfig();\n    }\n\n    /**\n     * @notice Sets the configuration of the vrfv2 mock coordinator\n     */\n    function setConfig() public onlyOwner {\n        s_config = Config({reentrancyLock: false});\n        emit ConfigSet();\n    }\n\n    function consumerIsAdded(\n        uint64 _subId,\n        address _consumer\n    ) public view returns (bool) {\n        address[] memory consumers = s_consumers[_subId];\n        for (uint256 i = 0; i < consumers.length; i++) {\n            if (consumers[i] == _consumer) {\n                return true;\n            }\n        }\n        return false;\n    }\n\n    modifier onlyValidConsumer(uint64 _subId, address _consumer) {\n        if (!consumerIsAdded(_subId, _consumer)) {\n            revert InvalidConsumer();\n        }\n        _;\n    }\n\n    /**\n     * @notice fulfillRandomWords fulfills the given request, sending the random words to the supplied\n     * @notice consumer.\n     *\n     * @dev This mock uses a simplified formula for calculating payment amount and gas usage, and does\n     * @dev not account for all edge cases handled in the real VRF coordinator. When making requests\n     * @dev against the real coordinator a small amount of additional LINK is required.\n     *\n     * @param _requestId the request to fulfill\n     * @param _consumer the VRF randomness consumer to send the result to\n     */\n    function fulfillRandomWords(\n        uint256 _requestId,\n        address _consumer\n    ) external nonReentrant {\n        fulfillRandomWordsWithOverride(_requestId, _consumer, new uint256[](0));\n    }\n\n    /**\n     * @notice fulfillRandomWordsWithOverride allows the user to pass in their own random words.\n     *\n     * @param _requestId the request to fulfill\n     * @param _consumer the VRF randomness consumer to send the result to\n     * @param _words user-provided random words\n     */\n    function fulfillRandomWordsWithOverride(\n        uint256 _requestId,\n        address _consumer,\n        uint256[] memory _words\n    ) public {\n        uint256 startGas = gasleft();\n        if (s_requests[_requestId].subId == 0) {\n            revert(\"nonexistent request\");\n        }\n        Request memory req = s_requests[_requestId];\n\n        if (_words.length == 0) {\n            _words = new uint256[](req.numWords);\n            for (uint256 i = 0; i < req.numWords; i++) {\n                _words[i] = uint256(keccak256(abi.encode(_requestId, i)));\n            }\n        } else if (_words.length != req.numWords) {\n            revert InvalidRandomWords();\n        }\n\n        VRFConsumerBaseV2 v;\n        bytes memory callReq = abi.encodeWithSelector(\n            v.rawFulfillRandomWords.selector,\n            _requestId,\n            _words\n        );\n        s_config.reentrancyLock = true;\n        (bool success, ) = _consumer.call{gas: req.callbackGasLimit}(callReq);\n        s_config.reentrancyLock = false;\n\n        uint96 payment = uint96(\n            BASE_FEE + ((startGas - gasleft()) * GAS_PRICE_LINK)\n        );\n        if (s_subscriptions[req.subId].balance < payment) {\n            revert InsufficientBalance();\n        }\n        s_subscriptions[req.subId].balance -= payment;\n        delete (s_requests[_requestId]);\n        emit RandomWordsFulfilled(_requestId, _requestId, payment, success);\n    }\n\n    /**\n     * @notice fundSubscription allows funding a subscription with an arbitrary amount for testing.\n     *\n     * @param _subId the subscription to fund\n     * @param _amount the amount to fund\n     */\n    function fundSubscription(uint64 _subId, uint96 _amount) public {\n        if (s_subscriptions[_subId].owner == address(0)) {\n            revert InvalidSubscription();\n        }\n        uint96 oldBalance = s_subscriptions[_subId].balance;\n        s_subscriptions[_subId].balance += _amount;\n        emit SubscriptionFunded(_subId, oldBalance, oldBalance + _amount);\n    }\n\n    function requestRandomWords(\n        bytes32 _keyHash,\n        uint64 _subId,\n        uint16 _minimumRequestConfirmations,\n        uint32 _callbackGasLimit,\n        uint32 _numWords\n    )\n        external\n        override\n        nonReentrant\n        onlyValidConsumer(_subId, msg.sender)\n        returns (uint256)\n    {\n        if (s_subscriptions[_subId].owner == address(0)) {\n            revert InvalidSubscription();\n        }\n\n        uint256 requestId = s_nextRequestId++;\n        uint256 preSeed = s_nextPreSeed++;\n\n        s_requests[requestId] = Request({\n            subId: _subId,\n            callbackGasLimit: _callbackGasLimit,\n            numWords: _numWords\n        });\n\n        emit RandomWordsRequested(\n            _keyHash,\n            requestId,\n            preSeed,\n            _subId,\n            _minimumRequestConfirmations,\n            _callbackGasLimit,\n            _numWords,\n            msg.sender\n        );\n        return requestId;\n    }\n\n    function createSubscription() external override returns (uint64 _subId) {\n        s_currentSubId++;\n        s_subscriptions[s_currentSubId] = Subscription({\n            owner: msg.sender,\n            balance: 0\n        });\n        emit SubscriptionCreated(s_currentSubId, msg.sender);\n        return s_currentSubId;\n    }\n\n    function getSubscription(\n        uint64 _subId\n    )\n        external\n        view\n        override\n        returns (\n            uint96 balance,\n            uint64 reqCount,\n            address owner,\n            address[] memory consumers\n        )\n    {\n        if (s_subscriptions[_subId].owner == address(0)) {\n            revert InvalidSubscription();\n        }\n        return (\n            s_subscriptions[_subId].balance,\n            0,\n            s_subscriptions[_subId].owner,\n            s_consumers[_subId]\n        );\n    }\n\n    function cancelSubscription(\n        uint64 _subId,\n        address _to\n    ) external override onlySubOwner(_subId) nonReentrant {\n        emit SubscriptionCanceled(_subId, _to, s_subscriptions[_subId].balance);\n        delete (s_subscriptions[_subId]);\n    }\n\n    modifier onlySubOwner(uint64 _subId) {\n        address owner = s_subscriptions[_subId].owner;\n        if (owner == address(0)) {\n            revert InvalidSubscription();\n        }\n        if (msg.sender != owner) {\n            revert MustBeSubOwner(owner);\n        }\n        _;\n    }\n\n    function getRequestConfig()\n        external\n        pure\n        override\n        returns (uint16, uint32, bytes32[] memory)\n    {\n        return (3, 2000000, new bytes32[](0));\n    }\n\n    function addConsumer(\n        uint64 _subId,\n        address _consumer\n    ) external override onlySubOwner(_subId) {\n        if (s_consumers[_subId].length == MAX_CONSUMERS) {\n            revert TooManyConsumers();\n        }\n\n        if (consumerIsAdded(_subId, _consumer)) {\n            return;\n        }\n\n        s_consumers[_subId].push(_consumer);\n        emit ConsumerAdded(_subId, _consumer);\n    }\n\n    function removeConsumer(\n        uint64 _subId,\n        address _consumer\n    )\n        external\n        override\n        onlySubOwner(_subId)\n        onlyValidConsumer(_subId, _consumer)\n        nonReentrant\n    {\n        address[] storage consumers = s_consumers[_subId];\n        for (uint256 i = 0; i < consumers.length; i++) {\n            if (consumers[i] == _consumer) {\n                address last = consumers[consumers.length - 1];\n                consumers[i] = last;\n                consumers.pop();\n                break;\n            }\n        }\n\n        emit ConsumerRemoved(_subId, _consumer);\n    }\n\n    function getConfig()\n        external\n        pure\n        returns (\n            uint16 minimumRequestConfirmations,\n            uint32 maxGasLimit,\n            uint32 stalenessSeconds,\n            uint32 gasAfterPaymentCalculation\n        )\n    {\n        return (4, 2_500_000, 2_700, 33285);\n    }\n\n    function getFeeConfig()\n        external\n        pure\n        returns (\n            uint32 fulfillmentFlatFeeLinkPPMTier1,\n            uint32 fulfillmentFlatFeeLinkPPMTier2,\n            uint32 fulfillmentFlatFeeLinkPPMTier3,\n            uint32 fulfillmentFlatFeeLinkPPMTier4,\n            uint32 fulfillmentFlatFeeLinkPPMTier5,\n            uint24 reqsForTier2,\n            uint24 reqsForTier3,\n            uint24 reqsForTier4,\n            uint24 reqsForTier5\n        )\n    {\n        return (\n            100000, // 0.1 LINK\n            100000, // 0.1 LINK\n            100000, // 0.1 LINK\n            100000, // 0.1 LINK\n            100000, // 0.1 LINK\n            0,\n            0,\n            0,\n            0\n        );\n    }\n\n    modifier nonReentrant() {\n        if (s_config.reentrancyLock) {\n            revert Reentrant();\n        }\n        _;\n    }\n\n    function getFallbackWeiPerUnitLink() external pure returns (int256) {\n        return 4000000000000000; // 0.004 Ether\n    }\n\n    function requestSubscriptionOwnerTransfer(\n        uint64 /*_subId*/,\n        address /*_newOwner*/\n    ) external pure override {\n        revert(\"not implemented\");\n    }\n\n    function acceptSubscriptionOwnerTransfer(\n        uint64 /*_subId*/\n    ) external pure override {\n        revert(\"not implemented\");\n    }\n\n    function pendingRequestExists(\n        uint64 /*subId*/\n    ) public pure override returns (bool) {\n        revert(\"not implemented\");\n    }\n}\n",
  "sourcePath": "contracts/test/VRFCoordinatorV2Mock.sol",
  "type": "contract"
}