{
  "abi": [
    {
      "inputs": [],
      "name": "EXTRA_ARGS_V1_TAG",
      "outputs": [
        {
          "internalType": "bytes4",
          "name": "",
          "type": "bytes4"
        }
      ],
      "stateMutability": "view",
      "type": "function"
    }
  ],
  "bytecode": "60b16037600b82828239805160001a607314602a57634e487b7160e01b600052600060045260246000fd5b30600052607381538281f3fe730000000000000000000000000000000000000000301460806040526004361060335760003560e01c8063f7514ab4146038575b600080fd5b605e7f92fd13387c7fe7befbc38d303d6468778fb9731bc4583f17d92989c6fcfdeaaa81565b6040516001600160e01b0319909116815260200160405180910390f3fea26469706673582212203954d1827be74142c7a385af4cca241c08ea8c27c39adac032df66aa8d32b86464736f6c634300081a0033",
  "bytecodeSha1": "6f875485bd4d5695d5d179425c1fd1a51bb832ae",
  "compiler": {
    "evm_version": "istanbul",
    "optimizer": {
      "enabled": true,
      "runs": 200
    },
    "version": "0.8.26+commit.8a97fa7a"
  },
  "contractName": "VRFV2PlusClient",
  "language": "Solidity",
  "natspec": {
    "kind": "dev",
    "methods": {},
    "version": 1
  },
  "opcodes": "PUSH20 0x0 ADDRESS EQ PUSH1 0x80 PUSH1 0x40 MSTORE PUSH1 0x4 CALLDATASIZE LT PUSH1 0x33 JUMPI PUSH1 0x0 CALLDATALOAD PUSH1 0xE0 SHR DUP1 PUSH4 0xF7514AB4 EQ PUSH1 0x38 JUMPI JUMPDEST PUSH1 0x0 DUP1 REVERT JUMPDEST PUSH1 0x5E PUSH32 0x92FD13387C7FE7BEFBC38D303D6468778FB9731BC4583F17D92989C6FCFDEAAA DUP2 JUMP JUMPDEST PUSH1 0x40 MLOAD PUSH1 0x1 PUSH1 0x1 PUSH1 0xE0 SHL SUB NOT SWAP1 SWAP2 AND DUP2 MSTORE PUSH1 0x20 ADD PUSH1 0x40 MLOAD DUP1 SWAP2 SUB SWAP1 RETURN INVALID LOG2 PUSH5 0x6970667358 0x22 SLT KECCAK256 CODECOPY SLOAD 0xD1 DUP3 PUSH28 0xE74142C7A385AF4CCA241C08EA8C27C39ADAC032DF66AA8D32B86464 PUSH20 0x6F6C634300081A00330000000000000000000000 ",
  "sha1": "f9cacfa54c63e29ece8389fe68cfbbb6660814e1",
  "source": "// SPDX-License-Identifier: MIT\npragma solidity ^0.8.4;\n\n// End consumer library.\nlibrary VRFV2PlusClient {\n  // extraArgs will evolve to support new features\n  bytes4 public constant EXTRA_ARGS_V1_TAG = bytes4(keccak256(\"VRF ExtraArgsV1\"));\n  struct ExtraArgsV1 {\n    bool nativePayment;\n  }\n\n  struct RandomWordsRequest {\n    bytes32 keyHash;\n    uint256 subId;\n    uint16 requestConfirmations;\n    uint32 callbackGasLimit;\n    uint32 numWords;\n    bytes extraArgs;\n  }\n\n  function _argsToBytes(ExtraArgsV1 memory extraArgs) internal pure returns (bytes memory bts) {\n    return abi.encodeWithSelector(EXTRA_ARGS_V1_TAG, extraArgs);\n  }\n}\n",
  "sourcePath": "C:/Users/ashut/.brownie/packages/smartcontractkit/chainlink@2.13.0/contracts/src/v0.8/vrf/dev/libraries/VRFV2PlusClient.sol",
  "type": "library"
}